S01200005069636B4E506C6163652E7372656358
S113000068200020C50C0000C10C0000C10C0000D9
S113001000000000000000000000000000000000DC
S1130020000000000000000000000000C10C0000FF
S11300300000000000000000C10C0000C10C000022
S1130040C10C0000C10C0000C10C0000C10C000078
S1130050C10C0000C10C0000C10C00002903000009
S1130060390300004903000059030000690300003C
S113007079030000C10C0000C10C0000C10C000099
S1130080C10C0000C10C0000C10C0000C10C000038
S1130090C10C0000C10C0000C10C0000C10C000028
S11300A0C10C000010B5064C2378002B07D1054B7A
S11300B0002B02D0044800E000BF0123237010BDD0
S11300C0040000200000000020100000084B10B5C0
S11300D0002B03D00749084800E000BF0748036825
S11300E0002B00D110BD064B002BFBD09847F9E73D
S11300F00000000008000020201000002010000074
S11301000000000010B5490840230024814202D2B7
S1130110180010BD1C00091A631C9BB28842F9D94F
S11301204023FF2CF4D814800023F1E710B582B0EB
S113013004000E4B1B78002B07D0002905D10B4B74
S11301405B78834210D01D200CE001A90C700C20B8
S1130150074B98470C20074B9847044B5C700122CF
S11301601A70002002B010BD0020FBE72000002020
S1130170690B0000DD0A0000404B984231D00AD9D7
S11301803F4B98424DD03F4B98425AD03E4B9842F9
S113019037D0002070473D4B98420CD03C4B9842DE
S11301A0F7D1012917D000295DD0022915D00329E0
S11301B015D00020EEE7012907D0002951D00229EB
S11301C005D0032905D00020E4E73248E2E73248AD
S11301D0E0E73248DEE73248DCE73248DAE7324823
S11301E0D8E7012907D000293FD0022905D00329E7
S11301F005D00020CEE72D48CCE72D48CAE72D488E
S1130200C8E7012907D0002931D0022905D00329E4
S113021005D00020BEE72848BCE72848BAE72848AC
S1130220B8E7012907D0002923D0022905D00329E2
S113023005D00020AEE72348ACE72348AAE72348CB
S1130240A8E7012907D0002915D0022905D00329E0
S113025005D000209EE71E489CE71E489AE71E48EA
S113026098E71E4896E7032094E71D4892E71D4847
S113027090E71D488EE71D488CE7C04600100042F9
S113028000180042001C0042001400420008004212
S1130290000C0042030005000300060003000700F1
S11302A00300010003001E0003001F0003000900F7
S11302B003000A0003000B000300110003001200F6
S11302C00300130003000D0003000E0003000F00E1
S11302D003001700030018000300190003000400C2
S11302E0030008000300100003000C0003001600C4
S11302F030B587B00B4B6A4632CB32C232CB32C2F6
S1130300009B83420BD001239A00694652588242D3
S113031006D00133062BF7D1002007B030BD0023EF
S1130320D8B2FAE7A80F000010B5024B1B680020F2
S1130330984710BD2400002010B5024B5B680120D3
S1130340984710BD2400002010B5024B9B68022082
S1130350984710BD2400002010B5024BDB68032031
S1130360984710BD2400002010B5024B1B690420DF
S1130370984710BD2400002010B5024B5B6905208E
S1130380984710BD24000020F0B5D6464F4680B5EE
S11303908BB081460F001400030019600B689B07A3
S11303A009D40B680520DB0700D4A4E00BB00CBC17
S11303B091469A46F0BD536A0593936A0693D36AAD
S11303C00793136B0893002605AB01930AE03800EA
S11303D0A14B98470CE00F23184081422DD10136E0
S11303E0042E2FD0F1B2B300019A98580028EED011
S11303F0431CF4D00104090C000CC3B29C46002336
S1130400020605D463465B09DB01944A92465344D1
S11304101F226046024098184030007882468020AF
S11304205546ED07D9D552089B1830331878C0B219
S11304306346DB07CFD50009CFE700234A461360A4
S11304401C20B3E70C20864B984722780025012A0C
S113045015D02178002926D13B68E27E1204A07EC3
S113046002431C209A42A1D16369228B207F002879
S113047001D040200243082003431D4314E004AA92
S113048001006069774B984703001720002B00D0C8
S11304908CE7BB7ADBB204AA127805309A4200D00A
S11304A084E70C35D5E700226368A0680343E0685D
S11304B003432B43207C0243607C002801D080202E
S11304C00343A07C002802D08020800202433868C5
S11304D002252B43834204D000234A4613601C2088
S11304E064E77B689342F7D14B465971237C4A46B3
S11304F0937100205AE708005B4B98475B4A116AE6
S1130500851C0123AB400B43136209A92026A35D7C
S11305100B700D30C5B22800554B98472800554B39
S11305209847A05D0021544B98472378012B20D095
S11305302378002B03D13B68082213433B604B46CE
S11305401E6804AB80221A7000225A70012199702F
S1130550DA702378002B01D104AB9A70636A059397
S1130560A36A0693E36A0793236B0893002705ADF8
S113057011E03B680C2213433B60D9E73000364B53
S113058098470DE004A90870000CC0B23B4B984793
S11305900137042F07D0F9B2BB0058590028EDD019
S11305A0431CEFD1F4E723784A465371237C9371BB
S11305B0A37CD371002202ABDA802378012B12D002
S11305C02378002B27D16069228B7369E17E0904AB
S11305D0A57E294319437161237F1100002B1CD090
S11305E04021114319E04B4618681F4B98470D30C2
S11305F0C0B21B4B9847010002AB9A1D6069194BAE
S1130600984703001720002B00D0CFE602AB063337
S11306101B78B372D4E7002100206368A2681343F7
S1130620E26813430343227C0A43617C002903D11B
S113063013498978890701D580210B43A17C0029BE
S113064002D0802189020A4331680B433360736806
S11306501A4372600020A9E67901000000440041B9
S1130660850B000005010000F102000000040040B9
S1130670690B0000DD0A00002D010000610C000080
S1130680002000410C4B1B68002B06D1EFF31083B4
S1130690002B07D00022094B1A70074A1368013354
S11306A01360704772B6BFF35F8F0022044B1A7059
S11306B00132024B1A70F0E73C0000204000002099
S11306C000000020084B1A68013A1A601B68002BCE
S11306D009D1064B1B78002B05D00122044B1A705C
S11306E0BFF35F8F62B670473C00002040000020DB
S11306F000000020F0B583B001AC0125657000272F
S1130700A770257021000E20064EB0478022D2012A
S1130710054B9A612770657021000F20B04703B024
S1130720F0BDC0462D0700000044004100B583B071
S113073001AB80221A700A785A704A789A708A78C3
S1130740DA701900014B984703B000BD610C00003A
S113075010B5072803D88000164B1B589F4600206D
S113076027E0154BD86824E0144B1B6A9B059B0FAC
S11307701348D8401DE0104B18691AE00E4B1B6853
S113078000209B0715D50D491022CB681A42FCD0D6
S1130790094B1B685B0701D40A480AE000200A4B96
S11307A09847054B9B681B041B0C584301E08020B1
S11307B0000210BDC00F00004400002000080040EB
S11307C000127A00006CDC02850B000070B50C4945
S11307D00B6A047885784078012210408001402615
S11307E0B34303432A40D2018020834313430322AB
S11307F0224012020348034013430B6270BDC046FB
S113080000080040FFFCFFFF072803D880001E4BB0
S11308101B589F46172036E01C4A136A02210B43DB
S1130820136200202FE0194A936902210B4393615C
S1130830002028E0154A138A02210B43138200206A
S113084021E0124A938A02210B43938200201AE08A
S11308500F4B1A6802210A431A601B680D4A1340A1
S11308600A4A938411001022CB681A42FCD0084A29
S11308709168064BD96251689962126892B29A845F
S1130880002000E000207047E00F00000008004056
S1130890440000207FFF000030B585B0C222D200A2
S11308A01A4B9A601A4A53681E218B4353600123E2
S11308B06A4613700024174DE0B26946A847013414
S11308C01C2CF9D103A80024447001258570047000
S11308D0114B98470620114B9847114B9847114BE1
S11308E01C725C729C72DC7201956B465C70062310
S11308F06A46137014725472694600200A4B984772
S113090000200A4B984705B030BDC046000800409F
S113091000400041690B0000CD07000009080000F9
S11309203109000000040040550900000D0A0000D0
S1130930064A936908210B4393610122044B1A7000
S113094019000B781342FCD17047C04600040040E4
S1130950000C004070B5060004000D782D0205431C
S11309604B78002B02D08023DB021D434B7A002BF3
S113097002D080231B031D434868012810D9431E5D
S1130980184234D1022830D90223002201325B00FC
S11309909842FBD812023243140080235B031D43A8
S11309A00B7A002B02D080239B031D43134A5378F8
S11309B05BB2002BFBDB124B9847124B1E700F4AA5
S11309C053785BB2002BFBDB0C4B9C601A00537812
S11309D05BB2002BFBDB094A5368802149020B40C0
S11309E01D435560084B984770BD0022D2E70402AE
S11309F0344380239B021D43D2E7C046000C0040D1
S1130A0085060000080C0040C506000010B504006F
S1130A100B4A53785BB2002BFBDB0A4B98470A4B1B
S1130A201C70074A53785BB2002BFBDB044A516805
S1130A3080235B020B435360044B984710BDC046B0
S1130A40000C004085060000040C0040C5060000B0
S1130A5070B504001A4A53785BB2002BFBDB194BC8
S1130A609847194B1C70164A53785BB2002BFBDB7A
S1130A70134E7068C004C00E144B98470500124B07
S1130A801C707668F602F60F114B1C700C4A5378F2
S1130A905BB2002BFBDB0A4B9C682402240C0D4B3D
S1130AA09847002E07D1012C07D9210028000A4BB2
S1130AB09847050001E00134E540280070BDC046B8
S1130AC0000C004085060000040C004051070000A3
S1130AD0080C0040C5060000390E000010B50400E3
S1130AE0064B9847064B1C70064A53888021C9015F
S1130AF00B435380044B984710BDC0468506000045
S1130B00020C0040000C0040C506000010B50400B3
S1130B100F4B98470F4B1C700F4A53881B05180F37
S1130B2053880E490B40538053880D490B40538022
S1130B3011008022D2014B881342FCD106494A8815
S1130B4003020648024013434B80064B984710BDEE
S1130B5085060000020C0040000C0040FFF0FFFF7F
S1130B60FFBFFFFFC506000010B50C782402044344
S1130B70024B9847A4B2024B5C8010BD0D0B0000E1
S1130B80000C004010B50400064B9847064B1C703F
S1130B90064B5C882405240F054B98472000054B21
S1130BA0984710BD85060000020C0040000C004070
S1130BB0C5060000510A000030B5D378002B35D1AA
S1130BC01378802B29D01B06802464022343547895
S1130BD00225AC4306D19478002C20D18024A402B1
S1130BE0234341605478013C012C1CD90D042D0C85
S1130BF0A024E4052C431C4384620D0CD024240659
S1130C002C431C438462D478002C22D15B031CD572
S1130C109378012B1ED0416117E00023D7E7C0244D
S1130C20E4022343DDE70D4C2340DFE741600C047D
S1130C30240CA023DB05234383620C0CD0231B0666
S1130C4023438362D378002B03D15378013B012BD8
S1130C5002D930BD8161F8E78160FAE7FFFFFBFF4D
S1130C6010B50A00C1090023002904D14309DB019E
S1130C7005498C4663441F2420400121814018000B
S1130C80024B984710BDC04600440041B90B000018
S1130C907047000010B5054B9847054B9847054B26
S1130CA09847054B9847054B984710BD9908000095
S1130CB0F5060000910C0000910C0000910C00005E
S1130CC0FEE7000010B51A4A1A4B9A4211D01A00D6
S1130CD0194B9A420DD2194A03339B1A9B080133CC
S1130CE09B000022134812498C58845004329A42C3
S1130CF0FAD1134A134B9A420AD2D34311495B18CF
S1130D0003218B4304339B18002102C29342FCD17C
S1130D100D4AFF210D4B8B4393600D4A53687F3975
S1130D200B4353600B4B98470B4B9847FEE7C04669
S1130D302010000000000020040000200400002017
S1130D40040000206400002000ED00E0000000002A
S1130D5000400041510F0000250E000030B58FB057
S1130D60254C2623237000236370A3700122694657
S1130D704A708B700A702620204B98472278D1093C
S1130D800023002904D15309DB011D498C46634427
S1130D901F211140012210008840986101AC22708B
S1130DA000230293039323746374A2741F32A35425
S1130DB0143A002106A8134B9847134B6361802310
S1130DC05B02E360114B636201235B42A362104B3D
S1130DD0E362104B2363104D220010492800104B8E
S1130DE098472A68138A1BB2002BFBDB1368022185
S1130DF00B4313600FB030BD580000202D070000D6
S1130E0000440041990F0000A08601000300040083
S1130E1003000600030007005C00002000080042F5
S1130E208903000010B5024B9847024B9847FEE730
S1130E30950C00005D0D0000002243088B4274D322
S1130E4003098B425FD3030A8B4244D3030B8B42C7
S1130E5028D3030C8B420DD3FF22090212BA030CD0
S1130E608B4202D31212090265D0030B8B4219D3B1
S1130E7000E0090AC30B8B4201D3CB03C01A5241D1
S1130E80830B8B4201D38B03C01A5241430B8B4219
S1130E9001D34B03C01A5241030B8B4201D30B0302
S1130EA0C01A5241C30A8B4201D3CB02C01A524129
S1130EB0830A8B4201D38B02C01A5241430A8B42EC
S1130EC001D34B02C01A5241030A8B4201D30B02D5
S1130ED0C01A5241CDD2C3098B4201D3CB01C01AEF
S1130EE0524183098B4201D38B01C01A52414309F9
S1130EF08B4201D34B01C01A524103098B4201D3E7
S1130F000B01C01A5241C3088B4201D3CB00C01A53
S1130F10524183088B4201D38B00C01A52414308CB
S1130F208B4201D34B00C01A5241411A00D20146F0
S1130F30524110467047FFE701B5002000F006F863
S1130F4002BDC0460029F7D076E770477047C04617
S1130F5070B500260C4D0D4C641BA410A64209D19B
S1130F60002600F04DF80A4D0A4C641BA410A6425A
S1130F7005D170BDB300EB5898470136EEE7B300D6
S1130F80EB5898470136F2E70C1000000C100000F3
S1130F900C1000001010000003008218934200D1CE
S1130FA0704719700133F9E700080042000C004251
S1130FB0001000420014004200180042001C0042CD
S1130FC0620700005E0700005E070000AE07000035
S1130FD0AE07000076070000680700007C070000E9
S1130FE034080000140800001408000084080000FD
S1130FF026080000420800001808000050080000FD
S1131000F8B5C046F8BC08BC9E467047CD00000049
S1131010F8B5C046F8BC08BC9E467047A500000061
S107102001000000C7
S9030CC52B
