:1000000050210020D9290000D5290000D529000061
:1000100000000000000000000000000000000000E0
:10002000000000000000000000000000D5290000D2
:100030000000000000000000D5290000D5290000C4
:10004000D5290000D5290000D5290000D5290000B8
:10005000D5290000D5290000D5290000010A00009B
:10006000110A0000210A0000310A0000410A0000C4
:10007000510A0000B1140000C1140000D1140000A6
:10008000E1140000F114000001150000111500003A
:1000900021150000D5290000D5290000D529000030
:1000A000D529000010B5064C2378002B07D1054B4D
:1000B000002B02D0044800E000BF0123237010BDD4
:1000C0002C0000200000000004360000084B10B592
:1000D000002B03D00749084800E000BF0748036829
:1000E000002B00D110BD064B002BFBD09847F9E741
:1000F000000000003000002004360000043600003C
:100100000000000070B50020084B98470500084C1F
:10011000FA218900A047074B186007492800A0472B
:10012000064B18600522064B1A6070BD652700005B
:10013000C52E00000000002040420F0004000020F7
:1001400010E000E030B5084B1C68084A002580210B
:100150004902013807D3002CFBD054609560136826
:100160000B42FCD0F5E730BD0400002010E000E0B9
:1001700030B5084B1C68084A002580214902013827
:1001800007D3002CFBD05460956013680B42FCD061
:10019000F5E730BD0000002010E000E010B50022BF
:1001A00000230270427000214280017103760262D6
:1001B000C26182600373C0246401C4810374437408
:1001C0008374C37403752A24035543758375063CF1
:1001D0000355C2840285C1752B23C1540133C15418
:1001E00010BD0000F0B5DE4657464E464546E0B528
:1001F00097B0070016000160C94A106A80235B02AD
:10020000034313620B780520DB0706D517B03CBC0F
:1002100090469946A246AB46F0BD0B7817309B0737
:10022000F4D473783B71002B04D1BE4A136C0421C3
:100230000B431364BC4B1B681B051B0F98463B68A4
:100240009B4633786A46137069461720B74B984728
:100250001720B74B98472C23F25C002A5AD0013B59
:10026000F55C337BEB18DBB2D118C9B28B4227D2D5
:100270005219D3B29946AF4B9A4633004E46B9460F
:100280001F0003E00135EDB2AE4217D00F242C4021
:100290003B7BE4185022A84902A8D047132CF1D880
:1002A000A40002ABE05801A900234B70CB708B7007
:1002B00001330B70C0B2A14B9847E3E73E004F46B5
:1002C000F48950229C4902A89A4B9847132C13D9C1
:1002D000737D9B00DBB25A461370B37DDB017278ED
:1002E0001343DBB25A4653703379342B00D98CE177
:1002F0009B00934AD3589F46A40002ABE05801A943
:1003000000234B70CB708B7001330B70C0B28B4BE2
:100310009847DDE7347B5022874902A8854B9847F0
:10032000132C15D9F4895022834902A8814B984790
:10033000132CCDD8A40002ABE05801A900234B70C8
:10034000CB708B7001330B70C0B27C4B9847BFE70A
:10035000A40002ABE05801A900234B70CB708B7056
:1003600001330B70C0B2754B9847DBE704231024B0
:10037000022122E0717C337C10241EE04346022BD4
:1003800000D8C4E006231024012116E04346022BC6
:1003900000D8C0E00823102400210EE00023302400
:1003A00000210AE000232024002106E0002300248D
:1003B000002102E0022310240121090170220A40D9
:1003C00013435A469370F37D17203F2B00D91DE746
:1003D000D3703A68537E5BB2002BFBDBF37C7288F0
:1003E00013432422B25CD2001343327D92001343A4
:1003F000B27C5200134323435A469380337E002B32
:1004000020D0102C00D1E2E000D8A1E0202C00D1B7
:10041000BFE0302C16D1F27C002A0AD0F26980327B
:100420001720FF2A00D9F1E6326A8032FF2A00D96C
:10043000ECE61720F269FF2A00DDE7E6326AFF2AC0
:1004400000DDE3E639684A7E52B2002AFBDB5A46F9
:1004500013723A68537E5BB2002BFBDBB38B5A46B8
:1004600093833A68537E5BB2002BFBDB338C5A4696
:1004700013842C23F35C002B05D0013BDBB2172047
:100480000F2B00D9C2E62B22B15C17200F2900D90F
:10049000BCE63868427E52B2002AFBDBF289307B30
:1004A0000243B068024309050A431B0413435A463A
:1004B00013612A23F35C13750F2393751533F35CD3
:1004C000002B12D0F38C1F4A1720934200D99DE6CF
:1004D0005A469384328D80231B01D31819499BB24D
:1004E0008B4200D992E65B46DA84174B1B685B01AE
:1004F000E022D2001340154A516849011268D20E19
:100500000A43D2B213435A46138500207EE60623DF
:100510001024032151E70823102404214DE7C0468D
:100520000004004000080040182000417D28000021
:10053000F12700004D32000044330000752900000F
:1005400070320000FF0F00002460800020608000F7
:10055000002C00D076E7F27C002A0FD0F2698021CF
:1005600009018C4662442A4917208A4200D94DE687
:10057000326A624426498A4200D947E6244A172053
:10058000F169914200DD41E6316A914200DD3DE6CC
:1005900058E7F27C002A0FD0F269802189008C464E
:1005A00062441C4917208A4200D92FE6326A62440D
:1005B00018498A4200D929E6164A1720F169914262
:1005C00000DD23E6316A914200DD1FE63AE7F27C66
:1005D000002A0FD0F269802109028C4662440E493C
:1005E00017208A4200D911E6326A62440A498A42D7
:1005F00000D90BE6084A1720F169914200DD05E6B3
:10060000316A914200DD01E61CE71720FEE5C04695
:10061000FF0F0000FF030000FFFF0000F0B5DE4603
:1006200057464E464546E0B587B0804604911600D1
:100630001F000022002300218B463F2401202100BF
:10064000009601975C4603944446059413E02024E9
:10065000641A0500E540A84614E0009C019D121BA9
:10066000AB415C464D462C43A346039C45462C4378
:100670000394013925D3202464420C19E7D40500E2
:10068000A540A84604008C40A14692185B41140086
:100690001D00059E4F463E40B446049E47463E40E0
:1006A000B246664657463E4303D006002643320014
:1006B0002B00009C019D9D42DBD8CED19442D8D81E
:1006C000CBE7039B5846190007B03CBC90469946BF
:1006D000A246AB46F0BD10B5490840230024814234
:1006E00002D2180010BD1C00091A631C9BB288427C
:1006F000F9D94023FF2CF4D814800023F1E700003F
:10070000F0B583B00F00160008AA117804004C431E
:100710004022BC4202D9100003B0F0BD002B14D11E
:10072000020008000021194CA04701003A000023F4
:100730000020174CA04700220123121A8B41120CF3
:100740001B041A4332800022E5E70022012BF9D175
:100750000A00002300210D4CA04702000B0000926C
:100760000193380000210A4CA047050080239B011B
:1007700040229842CFD8790FF800009A019BA047F9
:10078000EA00821AD2B252032A43DBE7B1310000F9
:100790001D06000010B582B004000E4B1B78002B24
:1007A00007D0002905D10B4B5B78834210D01D2068
:1007B0000CE001A90C700C20074B98470C20074B4C
:1007C0009847044B5C7001221A70002002B010BDE3
:1007D0000020FBE7480000207D280000F1270000F2
:1007E000404B984231D00AD93F4B98424DD03F4BB5
:1007F00098425AD03E4B984237D0002070473D4B2C
:1008000098420CD03C4B9842F7D1012917D00029CF
:100810005DD0022915D0032915D00020EEE701296B
:1008200007D0002951D0022905D0032905D0002086
:10083000E4E73248E2E73248E0E73248DEE73248B0
:10084000DCE73248DAE73248D8E7012907D0002947
:100850003FD0022905D0032905D00020CEE72D483E
:10086000CCE72D48CAE72D48C8E7012907D0002961
:1008700031D0022905D0032905D00020BEE7284841
:10088000BCE72848BAE72848B8E7012907D000297B
:1008900023D0022905D0032905D00020AEE7234844
:1008A000ACE72348AAE72348A8E7012907D0002995
:1008B00015D0022905D0032905D000209EE71E4847
:1008C0009CE71E489AE71E4898E71E4896E70320D3
:1008D00094E71D4892E71D4890E71D488EE71D48A4
:1008E0008CE7C0460010004200180042001C004285
:1008F0000014004200080042000C00420300050002
:1009000003000600030007000300010003001E00AF
:1009100003001F000300090003000A0003000B008E
:1009200003001100030012000300130003000D0078
:1009300003000E0003000F0003001700030018005F
:100940000300190003000400030008000300100066
:1009500003000C000300160030B587B00B4B6A464D
:1009600032CB32C232CB32C2009B83420BD0012346
:100970009A0069465258824206D00133062BF7D1BD
:10098000002007B030BD0023D8B2FAE7943300004E
:1009900070470000F0B50A4B1B78002B0CD1094FB3
:1009A000094E0A4D0024DE515A1914600433182BE5
:1009B000F9D10122024B1A708000024BC150F0BDE8
:1009C0004A0000204C00002091090000C4000020D3
:1009D00000B583B007236A461370013353700133A7
:1009E00093700133D3700133137101335371034B8F
:1009F00098476B46185603B000BDC0465909000021
:100A000010B5024B1B680020984710BD4C00002019
:100A100010B5024B5B680120984710BD4C000020C8
:100A200010B5024B9B680220984710BD4C00002077
:100A300010B5024BDB680320984710BD4C00002026
:100A400010B5024B1B690420984710BD4C000020D4
:100A500010B5024B5B690520984710BD4C00002083
:100A6000F0B5D6464F4680B58BB081460F001400D6
:100A7000030019600B689B0709D40B680520DB078E
:100A800000D4A4E00BB00CBC91469A46F0BD536A6A
:100A90000593936A0693D36A0793136B0893002612
:100AA00005AB01930AE03800A14B98470CE00F23F7
:100AB000184081422DD10136042E2FD0F1B2B3005F
:100AC000019A98580028EED0431CF4D00104090C78
:100AD000000CC3B29C460023020605D463465B09A2
:100AE000DB01944A924653441F2260460240981804
:100AF00040300078824680205546ED07D9D552080F
:100B00009B1830331878C0B26346DB07CFD5000995
:100B1000CFE700234A4613601C20B3E70C20864B26
:100B2000984722780025012A15D02178002926D15E
:100B30003B68E27E1204A07E02431C209A42A1D1AF
:100B40006369228B207F002801D0402002430820C7
:100B500003431D4314E004AA01006069774B9847E2
:100B600003001720002B00D08CE7BB7ADBB204AA6D
:100B7000127805309A4200D084E70C35D5E7002280
:100B80006368A0680343E06803432B43207C02436F
:100B9000607C002801D080200343A07C002802D084
:100BA000802080020243386802252B43834204D010
:100BB00000234A4613601C2064E77B689342F7D108
:100BC0004B465971237C4A46937100205AE708002E
:100BD0005B4B98475B4A116A851C0123AB400B4372
:100BE000136209A92026A35D0B700D30C5B2280041
:100BF000554B98472800554B9847A05D0021544B12
:100C000098472378012B20D02378002B03D13B6811
:100C1000082213433B604B461E6804AB80221A70C7
:100C200000225A7001219970DA702378002B01D1CB
:100C300004AB9A70636A0593A36A0693E36A079309
:100C4000236B0893002705AD11E03B680C2213438A
:100C50003B60D9E73000364B98470DE004A9087097
:100C6000000CC0B23B4B98470137042F07D0F9B2B4
:100C7000BB0058590028EDD0431CEFD1F4E723788E
:100C80004A465371237C9371A37CD371002202AB3B
:100C9000DA802378012B12D02378002B27D16069CA
:100CA000228B7369E17E0904A57E29431943716192
:100CB000237F1100002B1CD04021114319E04B462B
:100CC00018681F4B98470D30C0B21B4B9847010066
:100CD00002AB9A1D6069194B984703001720002B3F
:100CE00000D0CFE602AB06331B78B372D4E7002105
:100CF00000206368A2681343E26813430343227C25
:100D00000A43617C002903D113498978890701D5F9
:100D100080210B43A17C002902D0802189020A4353
:100D200031680B43336073681A4372600020A9E690
:100D3000E10700000044004199280000D7060000A8
:100D400059090000000400407D280000F127000040
:100D5000950700007529000000200041F0B5DE462F
:100D600057464E464546E0B583B01723002A07D1C3
:100D7000180003B03CBC90469946A246AB46F0BD75
:100D80004379002B03D103689C7BA4070AD49346C4
:100D9000002401230225AC460235A846013A92B24E
:100DA0008A4623E002249C73F1E7B57B61460D423D
:100DB0002ED1B57B1D4200D1C2E00668B57B1D4235
:100DC000FCD0671CBFB251460D5D8179012923D04B
:100DD000ADB23C00B77B1F4202D0ED05ED0D35836F
:100DE000551EADB2C679002E1DD12A00594DAA421A
:100DF00070D04579002DE0D10668B57B1D42D4D175
:100E0000554DB77B1F42D0D1013D002DF9D1CCE724
:100E10000223B3730233ABE70234A4B25146CF5D71
:100E20003F023D43D6E751464579002D37D14B4D22
:100E3000019112E00234A4B24946019F795C090293
:100E4000009F0F431BE0013A92B20668B77B414610
:100E50000F421BD1013D002D18D0002AF5D00668A5
:100E6000B77B1F42F1D0671CB9B289460199095D71
:100E7000009181790129DDD069460F884C46B17B0C
:100E80001942E0D0FF05FF0D3783DCE70199B57B00
:100E900067463D4218D1B57B4646354252D006687A
:100EA000B57B47463D42FBD0B57B3D4207D0358AF6
:100EB0003D4200D037828579012D09D0358B5D46C2
:100EC000013DADB2AB4669E70223B37302334FE78E
:100ED000358BF4E74379012B0BD0002B34D1C27949
:100EE000002A00D144E704245B465D46002B19D15B
:100EF0003EE7016802228B7B1342FCD0002337E7D8
:100F00008B7B234222D08B7B234207D00B8A234248
:100F100000D00C828379012B10D00B8B013DADB238
:100F2000002D15D001688B7B2342E9D10A4B8A7BC7
:100F30002242E5D1013B002BF9D1E1E70B8BEDE734
:100F4000122315E7122313E7002311E712230FE7FB
:100F500000230DE7FFFF000010270000112700000D
:100F6000F0B5DE4657464E464546E0B58DB0050025
:100F70000C001600296008007E4B98470200236889
:100F80000520DB0706D50DB03CBC90469946A2462D
:100F9000AB46F0BD236817309B07F4D47649086A46
:100FA000971C0123BB4003430B620BA9737F0B709B
:100FB0000D32D7B23800714B98473800704B9847C4
:100FC000707F00216F4B9847F37A6B71337DAB7163
:100FD000737DEB712B6898461800664B98470D306F
:100FE00000220E2302A98C4663441A8033680393BF
:100FF000F3689A46B37D9B4673689946002B14D0DC
:1010000080235B05994530D1F37D002B31D13369C5
:101010001F00C0B25C4B984701000E2202AB9C46F9
:1010200062443800594B984720E0F37D002B0BD0E9
:101030001023009300230E2202A98C466244B1695A
:101040003069534FB84711E033691F00C0B24E4BAF
:10105000984701001023009300230E2202A8844623
:10106000624438004A4FB84700E00020002800D012
:1010700089E70E2302AA944663441B8842465381A3
:101080005346039F1F434B461F435B465B071F436B
:10109000F37D002B01D104331F43317D4904737D5F
:1010A0001B040B43B17AF27A114319433389FF2BA6
:1010B00003D08022520417431943337F002B03D1FE
:1010C000344B9B789B0701D580231F432A68138AE2
:1010D0001BB2002BFBDB434659602A68138A1BB204
:1010E000002BFBDB43461F600AAB80221A700022F4
:1010F0005A70DA709A70336A0693736A0793B36A08
:101100000893F36A03930993002706AE06E02000D4
:10111000214B984707E00137042F0DD0F9B2BB00EF
:1011200098590028F3D0431CF5D00AA90870000C88
:10113000C0B21A4B9847EEE70023AB60EB602B611F
:10114000AB616B610022EB83AB832033EA54013344
:10115000EA540133EA540133EA542868054B9847AE
:1011600004000F490F4B9847A4000F4BE550002097
:1011700009E7C04659090000000400407D2800002E
:10118000F12700009507000099280000D70600000D
:101190000107000000200041E10700007529000060
:1011A000F512000095090000C4000020C2791C233C
:1011B000002A01D118007047C28B92B2173B002A57
:1011C000F8D1026811830221937B0B42FCD00023EB
:1011D000F0E70000F0B5CE46474680B583B0050085
:1011E00001911720002A04D103B00CBC9046994607
:1011F000F0BDEB790530002BF6D02C68013A93B2A4
:10120000994600260127204B984611E0731C9BB29B
:10121000019A915D6A79012A17D089B21E002800CF
:101220001A4B98474B46013B9BB29946434513D016
:10123000A37B3B42EAD1144BA27B3A42E6D1012B7D
:1012400019D0013B002BF7D1E0E70236B6B2019A84
:10125000D35C1B021943E2E7A37B9B070DD40A4B27
:101260000221A27B0A420AD1012B0AD0013B002BAA
:10127000F7D10020B8E71220B6E70020B4E700203D
:10128000B2E71220B0E7C046FFFF0000AD1100003A
:10129000F8B506000C00150007680A4B9847B38B99
:1012A0009BB2002B03D0084B98470520F8BDB583AF
:1012B000054B9847746105222223F2541E3B7B7331
:1012C0000020F3E799230000D9230000931C9B0022
:1012D00019502021012393401A00435C13434354C7
:1012E0007047000010B50122014B984710BDC04661
:1012F00091120000F8B58000464BC5582C68238A2F
:101300001BB2002BFBDBA37B667B1E402023EB5C28
:101310002122AF5C1F40F30722D5EB8B9BB2002B41
:101320001CD0AA691378DBB2511CA9616979012923
:101330000ED09BB2DB05DB0D2383EB8B013B9BB215
:10134000EB83002B0CD1013323730133637307E06C
:10135000517809020B430232AA61EBE701232373A0
:10136000B30706D50223237300222133EA54FB0777
:1013700016D473074DD5AB8B9BB2002B47D0238A75
:10138000DBB25A0720D09A070ED51A222223EA543C
:10139000203B23827B073CD52B692800984738E007
:1013A0002800AB689847E4E75A0705D51E22222398
:1013B000EA541E3B2382EDE7DB07EBD51322222301
:1013C000EA54213B2382E5E7238BDB05DB0DDAB210
:1013D00069690A706A69511C69616979012910D0CB
:1013E000AB8B013B9BB2AB83002B12D10433237335
:1013F00000221E33EA54BB070BD5EB682800984740
:1014000007E01B0A53706B6901336B61E8E7042343
:101410002373F8BDC4000020931C9B001950022ABE
:1014200009D0032A0CD0012393401A00037E1343F2
:10143000037600207047037E102213430376F8E7FB
:10144000037E202213430376F3E7000070B580008B
:10145000164BC45823689D7B227E637E13401D403B
:10146000EB0706D4AB070BD4EB0610D4AB0615D4B0
:1014700070BD2000A3689847012322689373F1E7A9
:101480002000E3689847022322689373ECE720006A
:1014900023699847102322689373E7E72000636964
:1014A0009847236820229A73E2E7C046DC000020B8
:1014B00010B50020014B984710BDC0464D140000E8
:1014C00010B50120014B984710BDC0464D140000D7
:1014D00010B50220014B984710BDC0464D140000C6
:1014E00010B50320014B984710BDC0464D140000B5
:1014F00010B50420014B984710BDC0464D140000A4
:1015000010B50520014B984710BDC0464D14000092
:1015100010B50620014B984710BDC0464D14000081
:1015200010B50720014B984710BDC0464D14000070
:1015300030B589B00C4B6A4632CB32C232CB32C2A4
:1015400012CB12C2009B98420BD001239A0069462D
:101550005258824206D00133082BF7D1002009B03F
:1015600030BD0023D8B2FAE7AC330000F0B5C64670
:1015700000B588B004000D00160008008B4B98479A
:10158000804606AB13221A705A7001329A70DA70D4
:1015900001321A715A7101329A71DA7102AA844BBE
:1015A000203383CB83C21B6813600023A360E360F6
:1015B000236163612376637643469A007D4BD45062
:1015C0002560B378082B08D023712B880520DB0712
:1015D00008D508B004BC9046F0BD17204246D2079B
:1015E000F7D4F1E7EB7B1730DB06F2D42B889B07AF
:1015F000EFD4337C002B00D07CE0337F002B00D075
:1016000084E06D49086A43465A0002ABD35A03434B
:101610000B62B378082B00D188E033786A461370E8
:1016200006AB42469F5C69463800644B98473800D9
:10163000634B98473189B3880B43B178B279114332
:1016400019437378002B02D080231B0119432268B1
:10165000D37B5BB2002BFBDB2980717B4B1E994156
:101660008900B37B002B01D0012319432268D37B6F
:101670005BB2002BFBDBFF232B71002905D0226816
:10168000D37B5BB2002BFBDB6971B17AF37A002B61
:1016900001D010231943337B002B01D020231943A1
:1016A0002268D37B5BB2002BFBDBA9712268D37B62
:1016B0005BB2002BFBDB2379042B40D0082B5FD0DF
:1016C0001720002B00D084E7D37B5BB2002BFBDB21
:1016D000338D2B822268D37B5BB2002BFBDB738DB7
:1016E0002B832268D37B5BB2002BFBDBB38D6B8338
:1016F00000206EE701A901238B700022CA70327EA0
:101700000A704B70307D2F4B984776E701A9012373
:101710008B700022CA702432B21812780A704B7093
:101720001F33F3181878274B98476AE7086A43462F
:101730005A1C520002ABD35A03430B626DE7D37BB2
:101740005BB2002BFBDB2823F35C2B742268D37B7A
:101750005BB2002BFBDB2923F35C2B752268D37B68
:101760005BB2002BFBDB2A23F35C2B762268D37B56
:101770005BB2002BFBDB2B23F35C6B76002028E7AE
:10178000D37B5BB2002BFBDBB36A2B612268D37B7C
:101790005BB2002BFBDBF36AAB612268D37B5BB2ED
:1017A000002BFBDB336BEB61002012E731150000EF
:1017B000AC330000DC000020000400407D28000065
:1017C000F12700007529000010B50468E37B5BB2C7
:1017D000002BFBDB0379042B05D0082B14D017203A
:1017E000002B08D010BD17200129FBD8D2B26118F8
:1017F0000A760020F6E717200129F3D892B20C31BF
:1018000049000A530020EDE717200129EAD80631E4
:1018100089000A510020E5E730B583B001AB020131
:10182000080A104318705970054C4025A561022222
:1018300019000448044B9847656103B030BDC046A9
:1018400080440041400100205D0D000010B5084BB0
:1018500099781A781143DA7811431A791143DA88A2
:1018600011431B8919430020024B984710BDC04605
:10187000680000201918000010B5044B997A9B8964
:1018800019430120024B984710BDC0466800002054
:1018900019180000F8B50C4C20800C4B19802088DA
:1018A0000B4D68430B4F0C49B847020000210B4811
:1018B0000B4EB047208868430A49B847020001210F
:1018C0000648B047F8BDC0468E00002094000020B6
:1018D00048E80100C52E000040420F00240100200E
:1018E000C917000080841E0010B50122024B1A7037
:1018F000024B984710BDC046680000204D180000FC
:1019000010B50400174BD870174B9847402C06D8D9
:10191000A400164B1B599F460122154B1A8010BD7F
:101920000222134B1A80FAE70422114B1A80F6E7C1
:1019300008220F4B1A80F2E710220D4B1A80EEE7B7
:1019400020220B4B1A80EAE74022094B1A80E6E777
:101950008022074B1A80E2E780225200044B1A8053
:10196000DDE7C046680000204D180000DC330000B1
:101970009000002070B50500184C262201002000C0
:10198000174B9847174B9847174B9847A17B238ACB
:1019900019430220154EB047A17CA38A19430320A6
:1019A000B047A17DE37D19430420B047217E638BBE
:1019B0001943A38B19430520B047A17F2023E35C83
:1019C00019432123E35C1943638C1943A38C194306
:1019D0000620B047E878064B984770BD68000020A5
:1019E0004D3200004D180000791800001918000051
:1019F0000119000010B5E422154B9A72154B984757
:101A000080225203144B5A61144B1A68D37B5BB289
:101A1000002BFBDB00231371D37B5BB2002BFBDBC2
:101A2000402353710C4880210904036A0B42FCD106
:101A3000D37B5BB2002BFBDB802353710022084B6E
:101A40001A80C832024B9A72024B984710BDC046AA
:101A500068000020791800000044004124010020A3
:101A60006400002070B50400C82800D970BDA4220D
:101A7000274B9A72274B984723011C1B264B1B8828
:101A80009C4236D31C1BE317E4185C40234B1B8895
:101A90005C43A4B280225203214B9A6101250022AB
:101AA000204B1A803C21962080001F4B98471F4BEB
:101AB0001A68D37B5BB2002BFBDB00231371D37B53
:101AC0005BB2002BFBDB40235371164A13889BB299
:101AD000A342FBD3134A13880F495D430B88ED18CB
:101AE0000D8000231380C822094B9A72094B984736
:101AF000BCE71C1BE317E4185C40084B1B885C43E5
:101B0000A4B280225203064B5A6101256D42C6E7FA
:101B10006800002079180000640000209000002078
:101B2000004400419200002095180000240100208C
:101B300070B50500E4222E4B9A722E4B98478022F6
:101B400052032D4B9A6100222C4B1A809620800064
:101B500001002B4B98472B4B1A68D37B5BB2002BB1
:101B6000FBDB00231371D37B5BB2002BFBDB402339
:101B70005371254C254E01E00A20B047A047A842EA
:101B8000FADB204B1B68DA7B52B2002AFBDB802297
:101B90005A711A4A118809B200201080802040032F
:101BA000154A5061DA7B52B2002AFBDB00221A711F
:101BB000DA7B52B2002AFBDB40225A710F480C003C
:101BC000028892B28A42FBDBDA7B52B2002AFBDB4C
:101BD00080225A71094B1B880D4AE31A11885B1841
:101BE0001380C822024B9A72024B984770BDC046C0
:101BF0006800002079180000004400419200002095
:101C000095180000240100202D1D00007101000026
:101C100064000020F8B5154B984703280BD0144AF0
:101C2000138801339BB21380124B1B88124A12880F
:101C30009BB2934200D8F8BD0E4C23880A3B9BB25E
:101C4000238020880D4D68430D4F0E49B847020090
:101C500000210D480D4EB047208868430C49B84715
:101C6000020001210848B047E5E7C046992A000074
:101C7000920000208E0000209400002048E801001F
:101C8000C52E000040420F0024010020C9170000AB
:101C900080841E0030B51C4B19684B7E5BB2002B54
:101CA000FBDB0B7B022213430B734B7E5BB2002BDF
:101CB000FBDB01200425022401E010420AD10B7E47
:101CC000DBB202001A401D4200D022431C42F4D075
:101CD0002A43F2E74B7E5BB2002BFBDB4A8B0B4BBC
:101CE0001A8001230B760A7ED2B21340500701D529
:101CF00002200343920701D5042213435B0701D559
:101D000002230B7630BDC04648010020960000201B
:101D100010B5034B9847034B1A88034B1A8010BD2C
:101D2000951C0000960000209800002010B5064B7E
:101D30009847064B1888064B1B88C31AD80FC01843
:101D4000401000B210BDC046951C00009600002057
:101D50009800002030B583B0652813D001AB532222
:101D60001A70587005329A70032401AD5823EB7035
:101D70006420084B9847A2B229000748074B9847B0
:101D800003B030BD01AB53221A7012325A709970F1
:101D90000424EAE771010000FC000020D5110000D6
:101DA00010B500217320044CA04700216920A047F2
:101DB0000120024B984710BD551D0000712A0000FC
:101DC00010B501006520034B98470120024B98474E
:101DD00010BDC046551D0000712A000070B582B0CC
:101DE000002843DB2B236A465370C317C0185840A2
:101DF00004B2204E20492000B04730306B46987026
:101E00001E4D1D492000A8470CB2FA218900200070
:101E1000B04730306B46D870FA2189002000A847BF
:101E20000CB264212000B04730306B461871642139
:101E30002000A8470CB20A212000B04730306B4682
:101E400058710A212000A84730316B4699716623EA
:101E50006A461370153BD371082269460848094B3E
:101E600098470120084B984702B070BD2D236A4661
:101E70005370BAE7D92F000010270000A5310000E9
:101E8000FC000020D5110000712A000010B50249A5
:101E90000248034B984710BD9C000020FC00002026
:101EA000E512000010B5704B1878002826D10023E9
:101EB0006E4A13706E4A13706E4B1A886E4B197807
:101EC0001300583B5C426341DBB28B4224D10029B2
:101ED0003AD1002800D0BBE0492A00D182E000D8E6
:101EE00077E04D2A00D18AE0542A00D08EE05422B7
:101EF0005E4B1A70533A604B1A7079E05D4B1A884A
:101F00001300583B59424B41DBB25B4909788B4285
:101F100002D1022800D898E000217520574B98473D
:101F20000022514B1A70564B984710BD4F4B1B78EF
:101F3000462B18D04D2B1FD0542B19D00020492BE5
:101F400002D103204F4B9847002839D001283CD0BC
:101F500033204D4B98470023434A1370464A137071
:101F6000474B9847E1E7494B9847494B9847F2E779
:101F70000620444B9847E7E73D4B1B78633BDAB2BA
:101F8000122A1BD89300434AD3589F4604203D4B46
:101F90009847D9E705203B4B9847D5E70920394BAF
:101FA0009847D1E70720374B9847CDE70820354BB6
:101FB0009847C9E70A20334B9847C5E70020C3E795
:101FC000002161302D4B9847C5E730302E4B9847A4
:101FD000C1E7462A1AD14622244B1A70453A264BAD
:101FE0001A7005E04922214B1A70483A224B1A70A8
:101FF0001D4A137801331370214B984795E74D2202
:102000001A4B1A7000221C4B1A70F1E70021752040
:102010001A4B98470022144B1A70194B984784E7C3
:10202000134B1A700222104B1A70013A124B1A709D
:10203000134B984779E700217520104B98470022F1
:10204000094B1A700E4B98476FE7582A00D16DE77D
:10205000012800D069E71300633B99B21229EAD83E
:102060008B000D49CB589F469E0000209B0000200E
:102070009F0000209C0000209A000020551D0000B9
:102080008D1E0000712A0000C11D00002D1D0000E2
:10209000DD1D0000E03400002C350000F0B5DE4608
:1020A00057464E464546E0B583B005000C00082073
:1020B0002D4B9847002C4DD0AB1C9B46013CA3B246
:1020C00002335B00EB180193284B9A4609E0FA2093
:1020D0004000274B984702239C46E344019B9B45C5
:1020E00038D05B46023B19880029F0D02148224BAA
:1020F000984783B298460004010C2048204B98472B
:1021000007043F0C002FE6DD43465B0800930024E4
:102110001C4D80235B0399463B004746984609E0E7
:102120000120D04780239B036B610120D0470134FD
:102130004445D0D04B46EB6180239B03AB61012F1C
:10214000EED90098094EB04780239B036B6100983D
:10215000B047ECE70B200C4B984703B03CBC9046D3
:102160009946A246AB46F0BD0119000045010000AA
:102170007101000040420F00D92F0000400D030004
:10218000C52E000000440041712A000010B5054B27
:102190009847054B98470022044B1A700B20044BBC
:1021A000984710BDF5190000111D0000A000002087
:1021B000712A000010B50C4B1B78012B10D0502059
:1021C0000A4CA0478022D203094B9A61FA20C00032
:1021D000084B98471420A0470B20074B984710BD89
:1021E0003220064B9847FAE7A0000020651A00004D
:1021F0000044004171010000712A0000C11D00006F
:1022000010B50C4B1B78012B10D050200A4CA04766
:102210008022D203094B5A61FA20C000084B98472C
:102220001420A0470B20074B984710BD3220064BC7
:102230009847FAE7A0000020651A0000004400411A
:1022400071010000712A0000C11D000010B50C4B87
:102250001B78002B10D050200A4CA047FA204000D9
:10226000094B9847FA20C000084B98471420A04714
:102270000B20074B984710BD3220064B9847FAE7D2
:10228000A0000020651A0000311B00007101000051
:10229000712A0000C11D000010B50C4B1B78002BEB
:1022A00010D050200A4CA047FA204000094B984714
:1022B000FA20C000084B98471420A0470B20074B7A
:1022C000984710BD3220064B9847FAE7A00000203F
:1022D000651A0000311B000071010000712A000026
:1022E000C11D000010B50A4B1B78012B0CD05020EB
:1022F000084CA047FA20C000074B98471420A0477D
:102300000B20064B984710BD3220054B9847FAE743
:10231000A0000020651A000071010000712A000071
:10232000C11D000010B5164B1B78002B15D0502096
:10233000144CA0478022D203134B5A61FA20C000EC
:10234000124B98471420A047114B984700220C4B82
:102350001A700B200F4B984710BD8022D2030A4BF6
:102360009A615020074CA047FA20C000074B9847BD
:102370001420A047064B98470122014B1A70E8E74A
:10238000A0000020651A0000004400417101000017
:10239000111D0000712A00000C4B1B68002B06D198
:1023A000EFF31083002B07D00022094B1A70074A65
:1023B000136801331360704772B6BFF35F8F00225A
:1023C000044B1A700132024B1A70F0E7A40000208F
:1023D000A800002008000020084B1A68013A1A6083
:1023E0001B68002B09D1064B1B78002B05D001225E
:1023F000044B1A70BFF35F8F62B67047A4000020D1
:10240000A800002008000020F0B583B001AC012531
:1024100065700027A770257021000E20064EB0477A
:102420008022D201054B9A612770657021000F2030
:10243000B04703B0F0BDC046412400000044004155
:1024400000B583B001AB80221A700A785A704A78BE
:102450009A708A78DA701900014B984703B000BD72
:102460007529000010B5072803D88000164B1B58AB
:102470009F46002027E0154BD86824E0144B1B6AC8
:102480009B059B0F1348D8401DE0104B18691AE0BC
:102490000E4B1B6800209B0715D50D491022CB68F9
:1024A0001A42FCD0094B1B685B0701D40A480AE0BA
:1024B00000200A4B9847054B9B681B041B0C584394
:1024C00001E08020000210BD78350000AC00002043
:1024D0000008004000127A00006CDC02992800001D
:1024E00070B50C490B6A0478857840780122104059
:1024F00080014026B34303432A40D2018020834316
:1025000013430322224012020348034013430B6289
:1025100070BDC04600080040FFFCFFFF072803D83D
:1025200080001E4B1B589F46172036E01C4A136A3A
:1025300002210B43136200202FE0194A9369022104
:102540000B439361002028E0154A138A02210B43B4
:102550001382002021E0124A938A02210B439382C6
:1025600000201AE00F4B1A6802210A431A601B6808
:102570000D4A13400A4A938411001022CB681A4274
:10258000FCD0084A9168064BD9625168996212687A
:1025900092B29A84002000E0002070479835000035
:1025A00000080040AC0000207FFF000030B585B07F
:1025B000C222D2001A4B9A601A4A53681E218B43DA
:1025C000536001236A4613700024174DE0B2694638
:1025D000A84701341C2CF9D103A80024447001251C
:1025E00085700470114B98470620114B9847114B8A
:1025F0009847114B1C725C729C72DC7201956B46A1
:102600005C7006236A461370147254726946002087
:102610000A4B984700200A4B984705B030BDC0468A
:1026200000080040004000417D280000E124000037
:102630001D2500004526000000040040692600001A
:1026400021270000064A936908210B439361012268
:10265000044B1A7019000B781342FCD17047C04626
:1026600000040040000C004070B5060004000D7826
:102670002D0205434B78002B02D08023DB021D4343
:102680004B7A002B02D080231B031D43486801288E
:1026900010D9431E184234D1022830D90223002217
:1026A00001325B009842FBD81202324314008023AF
:1026B0005B031D430B7A002B02D080239B031D4339
:1026C000134A53785BB2002BFBDB124B9847124B3B
:1026D0001E700F4A53785BB2002BFBDB0C4B9C60E7
:1026E0001A0053785BB2002BFBDB094A5368802148
:1026F00049020B401D435560084B984770BD0022AE
:10270000D2E70402344380239B021D43D2E7C04634
:10271000000C004099230000080C0040D923000061
:1027200010B504000B4A53785BB2002BFBDB0A4B5D
:1027300098470A4B1C70074A53785BB2002BFBDBAF
:10274000044A516880235B020B435360044B984753
:1027500010BDC046000C004099230000040C00404E
:10276000D923000070B504001A4A53785BB2002BDD
:10277000FBDB194B9847194B1C70164A53785BB218
:10278000002BFBDB134E7068C004C00E144B98473F
:102790000500124B1C707668F602F60F114B1C7088
:1027A0000C4A53785BB2002BFBDB0A4B9C6824027B
:1027B000240C0D4B9847002E07D1012C07D921007E
:1027C00028000A4B9847050001E00134E540280045
:1027D00070BDC046000C004099230000040C00406E
:1027E00065240000080C0040D9230000C52E00001D
:1027F00010B50400064B9847064B1C70064A5388D8
:102800008021C9010B435380044B984710BDC0463B
:1028100099230000020C0040000C0040D923000066
:1028200010B504000F4B98470F4B1C700F4A53888C
:102830001B05180F53880E490B40538053880D49D0
:102840000B40538011008022D2014B881342FCD1EF
:1028500006494A8803020648024013434B80064B50
:10286000984710BD99230000020C0040000C004066
:10287000FFF0FFFFFFBFFFFFD923000010B50C786A
:1028800024020443024B9847A4B2024B5C8010BD63
:1028900021280000000C004010B50400064B9847AA
:1028A000064B1C70064B5C882405240F054B98478B
:1028B0002000054B984710BD99230000020C0040F2
:1028C000000C0040D92300006527000030B5D37804
:1028D000002B35D11378802B29D01B06802464026D
:1028E000234354780225AC4306D19478002C20D1A0
:1028F0008024A402234341605478013C012C1CD95C
:102900000D042D0CA024E4052C431C4384620D0C03
:10291000D02424062C431C438462D478002C22D17A
:102920005B031CD59378012B1ED0416117E0002377
:10293000D7E7C024E4022343DDE70D4C2340DFE763
:1029400041600C04240CA023DB05234383620C0CA0
:10295000D0231B0623438362D378002B03D1537803
:10296000013B012B02D930BD8161F8E78160FAE7B4
:10297000FFFFFBFF10B50A00C1090023002904D1A5
:102980004309DB0105498C4663441F242040012193
:1029900081401800024B984710BDC04600440041DA
:1029A000CD2800007047000010B5054B9847054B37
:1029B0009847054B9847054B9847054B984710BDDE
:1029C000AD25000009240000A5290000A52900006C
:1029D000A5290000FEE7000010B51A4A1A4B9A42DA
:1029E00011D01A00194B9A420DD2194A03339B1A7F
:1029F0009B0801339B000022134812498C588450D5
:102A000004329A42FAD1134A134B9A420AD2D34360
:102A100011495B1803218B4304339B18002102C228
:102A20009342FCD10D4AFF210D4B8B4393600D4A1D
:102A300053687F390B4353600B4B98470B4B9847B8
:102A4000FEE7C04604360000000000202C000020F5
:102A5000040000202C0000205001002000ED00E0C8
:102A6000000000000040004105320000A52A0000DF
:102A7000084B1B78002B02D10133032804D1054BEE
:102A80001A780223012A01D018007047014B1870F0
:102A90000023F9E7C0000020014B1878C0B270474E
:102AA000C0000020F0B5C64600B58EB0D24B9847A6
:102AB000D24B984701AC0026A6700123984623709C
:102AC0000223637021001420CD4DA8472100262049
:102AD000A84721001520A84721001620A8472670E6
:102AE0004346637021001720A847C64F26233B703A
:102AF0007E70BE7043466370A6702370210026204E
:102B0000A8473A785309D0090021002802D1DB01F7
:102B1000BD4959181F2313400122100098408861B5
:102B200001AC22700023029323746374A2741F32D9
:102B3000A354143A002106A8B44B9847B44B6361E0
:102B4000C0239B05A36080235B02E360B14B6362FB
:102B500001235B42A362B04BE362B04B2363B04DF1
:102B60002200B0492800B04B98472B681A8A12B24D
:102B7000002AFBDB1A6802210A431A6001AC002319
:102B8000A3701822E2702371C0229200E280C0225A
:102B9000120122811422A272EC32A281603AA27345
:102BA00000252382203AA274A3820E31A1750B392D
:102BB000E175A5770826E6771B316154013162542F
:102BC0006384A384403A2276C132FF326283A383B6
:102BD0002000964B9847964B98472000954B984776
:102BE000C0235B01E381267365700A232374924D31
:102BF000220092492800924B98472B685A7E52B285
:102C0000002AFBDB0F229A751A761A7802210A43F2
:102C10001A70894B1A68537E5BB2002BFBDB01AB49
:102C20008022D205019200225A60FF2119819A72F6
:102C3000DA729621890119610121197559759A7500
:102C4000DA759A611A775A7780225203DA607D4AE0
:102C50001A627D4A5A62012252429A62DA627B4DBE
:102C60007B4C03E0FA2080007A4B984701AA7A490E
:102C70002800A0470028F5D1744D2C682000774B20
:102C800098471F2318401E3B8340754A13602A68EB
:102C9000138A1BB2002BFBDB236802221343236041
:102CA0006A4B1B681A8A12B2002AFBDB5968802221
:102CB00052020A435A600121644AD1711A8A12B23F
:102CC000002AFBDB1A8A12B2002AFBDB5968802239
:102CD00092020A435A6001215C4A91711A8A12B227
:102CE000002AFBDB594C01225E4920005E4B9847CD
:102CF0002122A35C02210B43A35401AA002300213B
:102D0000137093701381002050709172D1721173FF
:102D1000917351731174536193611385A023DB0088
:102D2000938060239371153B5385263B9385243B09
:102D300013774E4B5362142313624D4C4D492000C0
:102D40004D4B98472368DA7B52B2002AFBDB1A8886
:102D500002210A431A80464B1A68D37B5BB2002BD0
:102D6000FBDB80235371424C002244492000444B3A
:102D700098472068434B9847434B1B5C1F221A40DF
:102D8000012319009140364A1160627E01210A43F5
:102D90006276226853733D4A1370BFF35F8F62B649
:102DA00000223B4B1A703B4B9847394C3A4D3B4EF7
:102DB00001E03B4B98472378033BDAB2082AFAD864
:102DC0009300EB589F46374B9847F4E7364B9847AC
:102DD000F1E7364B9847EEE7354B9847EBE7354B35
:102DE0009847E8E7344B9847E5E70F213348344BE1
:102DF0009847E0E7B047DEE7A92900000501000099
:102E00004124000020010020004400415F32000006
:102E1000A086010003000400030006000300070071
:102E20004001002000080042610A000075190000FE
:102E3000E91800009D010000480100200040004208
:102E4000E50100000300280003002900FC00002029
:102E5000610F00007101000000180042D10900005C
:102E600000E100E0A51E0000CD12000004001500E6
:102E700024010020003C00426D150000151C0000DC
:102E80001914000031150000DC3500000800002096
:102E9000C00000208D1E0000B8350000A11D0000FC
:102EA0008D210000B5210000012200002523000033
:102EB000992200004D220000E52200000C000020B5
:102EC0009D200000002243088B4274D303098B42EB
:102ED0005FD3030A8B4244D3030B8B4228D3030CEA
:102EE0008B420DD3FF22090212BA030C8B4202D38C
:102EF0001212090265D0030B8B4219D300E0090AB4
:102F0000C30B8B4201D3CB03C01A5241830B8B42BC
:102F100001D38B03C01A5241430B8B4201D34B03A5
:102F2000C01A5241030B8B4201D30B03C01A52410A
:102F3000C30A8B4201D3CB02C01A5241830A8B428F
:102F400001D38B02C01A5241430A8B4201D34B0278
:102F5000C01A5241030A8B4201D30B02C01A5241DC
:102F6000CDD2C3098B4201D3CB01C01A5241830990
:102F70008B4201D38B01C01A524143098B4201D3CA
:102F80004B01C01A524103098B4201D30B01C01AF5
:102F90005241C3088B4201D3CB00C01A524183086F
:102FA0008B4201D38B00C01A524143088B4201D39C
:102FB0004B00C01A5241411A00D2014652411046FC
:102FC0007047FFE701B5002000F0F0F802BDC046F1
:102FD0000029F7D076E7704703460B437FD40022E1
:102FE00043088B4274D303098B425FD3030A8B429D
:102FF00044D3030B8B4228D3030C8B420DD3FF2207
:10300000090212BA030C8B4202D31212090265D0D4
:10301000030B8B4219D300E0090AC30B8B4201D387
:10302000CB03C01A5241830B8B4201D38B03C01ACE
:103030005241430B8B4201D34B03C01A5241030B45
:103040008B4201D30B03C01A5241C30A8B4201D3F6
:10305000CB02C01A5241830A8B4201D38B02C01AA1
:103060005241430A8B4201D34B02C01A5241030A18
:103070008B4201D30B02C01A5241CDD2C3098B42FD
:1030800001D3CB01C01A524183098B4201D38B017A
:10309000C01A524143098B4201D34B01C01A52411D
:1030A00003098B4201D30B01C01A5241C3088B4262
:1030B00001D3CB00C01A524183088B4201D38B004D
:1030C000C01A524143088B4201D34B00C01A5241EF
:1030D000411A00D201465241104670475DE0CA0FC6
:1030E00000D04942031000D34042534000229C4686
:1030F00003098B422DD3030A8B4212D3FC22890190
:1031000012BA030A8B420CD3890192118B4208D365
:10311000890192118B4204D389013AD0921100E0C7
:103120008909C3098B4201D3CB01C01A52418309DB
:103130008B4201D38B01C01A524143098B4201D308
:103140004B01C01A524103098B4201D30B01C01A33
:103150005241C3088B4201D3CB00C01A52418308AD
:103160008B4201D38B00C01A5241D9D243088B4203
:1031700001D34B00C01A5241411A00D201466346A6
:1031800052415B10104601D34042002B00D549420A
:10319000704763465B1000D3404201B5002000F049
:1031A00005F802BD0029F8D016E770477047C04601
:1031B000F0B5CE46474615042D0C2E0080B5070409
:1031C000140C3F0C9946030C7E435D4367436343F5
:1031D0007F19340CE4199C46A54203D980235B0275
:1031E0009846C4444B46514343433604360C250CA1
:1031F00024046544A4195918491920000CBC9046B0
:103200009946F0BD70B500260C4D0D4C641BA41002
:10321000A64209D1002600F0E5F90A4D0A4C641BCC
:10322000A410A64205D170BDB300EB5898470136F3
:10323000EEE7B300EB5898470136F2E7F0350000AF
:10324000F0350000F0350000F4350000002310B523
:103250009A4200D110BDCC5CC4540133F8E703009E
:103260008218934200D1704719700133F9E70000CA
:10327000AC0300000A0600000A0600000A0600006F
:103280000A0600000A0600000A0600000A060000FE
:103290000A0600000A0600000A0600000A060000EE
:1032A0000A0600000A0600000A0600000A060000DE
:1032B0008C0300000A0600000A0600000A0600004F
:1032C0000A0600000A0600000A0600000A060000BE
:1032D0000A0600000A0600000A0600000A060000AE
:1032E0000A0600000A0600000A0600000A0600009E
:1032F000A40300000A0600000A0600000A060000F7
:103300000A0600000A0600000A0600000A0600007D
:103310000A0600000A0600000A0600000A0600006D
:103320000A0600000A0600000A0600000A0600005D
:103330009C030000B40300006C0300007C03000049
:1033400074030000020000000300000028000000D9
:103350002900000004000000050000000600000035
:1033600007000000200000002100000022000000F3
:1033700023000000240000002500000026000000BB
:103380002700000008000000090000000A000000FB
:103390000B00000000080042000C00420010004238
:1033A0000014004200180042001C004200200042AD
:1033B0000024004200280042002C0042003000425D
:1033C0000034004200380042003C0042000100028C
:1033D00000040008001000200040008018190000C0
:1033E0001E1900001E1900001E1900001E19000001
:1033F0001E1900001E1900001E19000020190000EF
:103400001E1900001E1900001E1900001E190000E0
:103410001E1900001E1900001E19000028190000C6
:103420001E1900001E1900001E1900001E190000C0
:103430001E1900001E1900001E190000301900009E
:103440001E1900001E1900001E1900001E190000A0
:103450001E1900001E1900001E1900003819000076
:103460001E1900001E1900001E1900001E19000080
:103470001E1900001E1900001E190000401900004E
:103480001E1900001E1900001E1900001E19000060
:103490001E1900001E1900001E1900004819000026
:1034A0001E1900001E1900001E1900001E19000040
:1034B0001E1900001E1900001E19000050190000FE
:1034C0001E1900001E1900001E1900001E19000020
:1034D0001E1900001E1900001E19000058190000D6
:1034E0009C1F0000941F0000BC1F0000BC1F0000B8
:1034F000BC1F0000BC1F0000AC1F0000BC1F000070
:10350000BC1F0000BC1F0000B41F0000BC1F000057
:10351000BC1F0000BC1F0000BC1F0000BC1F00003F
:10352000A41F0000BC1F00008C1F00002020000012
:103530002020000036200000362000003620000049
:103540003620000020200000362000003620000039
:103550003620000020200000362000003620000029
:103560003620000036200000362000002020000019
:103570003620000020200000762400007224000085
:1035800072240000C2240000C22400008A2400002B
:103590007C2400009024000048250000282500001D
:1035A00028250000982500003A2500005625000037
:1035B0002C25000064250000B22D0000C62D00005F
:1035C000CC2D0000D22D0000D82D0000DE2D0000F3
:1035D000E42D0000EA2D0000F42D00000D0E0F1068
:1035E00011121314F8B5C046F8BC08BC9E467047CB
:1035F000CD000000F8B5C046F8BC08BC9E46704738
:04360000A500000021
:10360400401F00000800000001000000581B701754
:10361400581BB80BB80B0000581B7017581B7017B9
:0C3624007C157C15581B7017581B00000B
:04000003000029D9F7
:00000001FF
