:10000000082100201D1E0000191E0000191E0000FE
:1000100000000000000000000000000000000000E0
:10002000000000000000000000000000191E000099
:100030000000000000000000191E0000191E000052
:10004000191E0000191E0000191E0000191E0000D4
:10005000191E0000191E0000191E0000010A0000F0
:10006000110A0000210A0000310A0000410A0000C4
:10007000510A0000191E0000191E0000191E000080
:10008000191E0000191E0000191E0000191E000094
:10009000191E0000191E0000191E0000191E000084
:1000A000191E000010B5064C2378002B07D1054B14
:1000B000002B02D0044800E000BF0123237010BDD4
:1000C0000C000020000000006C250000084B10B55B
:1000D000002B03D00749084800E000BF0748036829
:1000E000002B00D110BD064B002BFBD09847F9E741
:1000F00000000000100000206C2500006C250000AE
:100100000000000070B50020084B98470500084C1F
:10011000FA218900A047074B186007492800A0472B
:10012000064B18600522064B1A6070BDA91B000023
:10013000C52100000000002040420F000400002004
:1001400010E000E030B5084B1C68084A002580210B
:100150004902013807D3002CFBD054609560136826
:100160000B42FCD0F5E730BD0400002010E000E0B9
:1001700030B5084B1C68084A002580214902013827
:1001800007D3002CFBD05460956013680B42FCD061
:10019000F5E730BD0000002010E000E010B50022BF
:1001A00000230270427000214280017103760262D6
:1001B000C26182600373C0246401C4810374437408
:1001C0008374C37403752A24035543758375063CF1
:1001D0000355C2840285C1752B23C1540133C15418
:1001E00010BD0000F0B5DE4657464E464546E0B528
:1001F00097B0070016000160C94A106A80235B02AD
:10020000034313620B780520DB0706D517B03CBC0F
:1002100090469946A246AB46F0BD0B7817309B0737
:10022000F4D473783B71002B04D1BE4A136C0421C3
:100230000B431364BC4B1B681B051B0F98463B68A4
:100240009B4633786A46137069461720B74B984728
:100250001720B74B98472C23F25C002A5AD0013B59
:10026000F55C337BEB18DBB2D118C9B28B4227D2D5
:100270005219D3B29946AF4B9A4633004E46B9460F
:100280001F0003E00135EDB2AE4217D00F242C4021
:100290003B7BE4185022A84902A8D047132CF1D880
:1002A000A40002ABE05801A900234B70CB708B7007
:1002B00001330B70C0B2A14B9847E3E73E004F46B5
:1002C000F48950229C4902A89A4B9847132C13D9C1
:1002D000737D9B00DBB25A461370B37DDB017278ED
:1002E0001343DBB25A4653703379342B00D98CE177
:1002F0009B00934AD3589F46A40002ABE05801A943
:1003000000234B70CB708B7001330B70C0B28B4BE2
:100310009847DDE7347B5022874902A8854B9847F0
:10032000132C15D9F4895022834902A8814B984790
:10033000132CCDD8A40002ABE05801A900234B70C8
:10034000CB708B7001330B70C0B27C4B9847BFE70A
:10035000A40002ABE05801A900234B70CB708B7056
:1003600001330B70C0B2754B9847DBE704231024B0
:10037000022122E0717C337C10241EE04346022BD4
:1003800000D8C4E006231024012116E04346022BC6
:1003900000D8C0E00823102400210EE00023302400
:1003A00000210AE000232024002106E0002300248D
:1003B000002102E0022310240121090170220A40D9
:1003C00013435A469370F37D17203F2B00D91DE746
:1003D000D3703A68537E5BB2002BFBDBF37C7288F0
:1003E00013432422B25CD2001343327D92001343A4
:1003F000B27C5200134323435A469380337E002B32
:1004000020D0102C00D1E2E000D8A1E0202C00D1B7
:10041000BFE0302C16D1F27C002A0AD0F26980327B
:100420001720FF2A00D9F1E6326A8032FF2A00D96C
:10043000ECE61720F269FF2A00DDE7E6326AFF2AC0
:1004400000DDE3E639684A7E52B2002AFBDB5A46F9
:1004500013723A68537E5BB2002BFBDBB38B5A46B8
:1004600093833A68537E5BB2002BFBDB338C5A4696
:1004700013842C23F35C002B05D0013BDBB2172047
:100480000F2B00D9C2E62B22B15C17200F2900D90F
:10049000BCE63868427E52B2002AFBDBF289307B30
:1004A0000243B068024309050A431B0413435A463A
:1004B00013612A23F35C13750F2393751533F35CD3
:1004C000002B12D0F38C1F4A1720934200D99DE6CF
:1004D0005A469384328D80231B01D31819499BB24D
:1004E0008B4200D992E65B46DA84174B1B685B01AE
:1004F000E022D2001340154A516849011268D20E19
:100500000A43D2B213435A46138500207EE60623DF
:100510001024032151E70823102404214DE7C0468D
:10052000000400400008004018200041C11C0000E9
:10053000351C00007923000070240000B91D000064
:100540009C230000FF0F00002460800020608000DA
:10055000002C00D076E7F27C002A0FD0F2698021CF
:1005600009018C4662442A4917208A4200D94DE687
:10057000326A624426498A4200D947E6244A172053
:10058000F169914200DD41E6316A914200DD3DE6CC
:1005900058E7F27C002A0FD0F269802189008C464E
:1005A00062441C4917208A4200D92FE6326A62440D
:1005B00018498A4200D929E6164A1720F169914262
:1005C00000DD23E6316A914200DD1FE63AE7F27C66
:1005D000002A0FD0F269802109028C4662440E493C
:1005E00017208A4200D911E6326A62440A498A42D7
:1005F00000D90BE6084A1720F169914200DD05E6B3
:10060000316A914200DD01E61CE71720FEE5C04695
:10061000FF0F0000FF030000FFFF0000F0B5DE4603
:1006200057464E464546E0B587B0804604911600D1
:100630001F000022002300218B463F2401202100BF
:10064000009601975C4603944446059413E02024E9
:10065000641A0500E540A84614E0009C019D121BA9
:10066000AB415C464D462C43A346039C45462C4378
:100670000394013925D3202464420C19E7D40500E2
:10068000A540A84604008C40A14692185B41140086
:100690001D00059E4F463E40B446049E47463E40E0
:1006A000B246664657463E4303D006002643320014
:1006B0002B00009C019D9D42DBD8CED19442D8D81E
:1006C000CBE7039B5846190007B03CBC90469946BF
:1006D000A246AB46F0BD10B5490840230024814234
:1006E00002D2180010BD1C00091A631C9BB288427C
:1006F000F9D94023FF2CF4D814800023F1E700003F
:10070000F0B583B00F00160008AA117804004C431E
:100710004022BC4202D9100003B0F0BD002B14D11E
:10072000020008000021194CA04701003A000023F4
:100730000020174CA04700220123121A8B41120CF3
:100740001B041A4332800022E5E70022012BF9D175
:100750000A00002300210D4CA04702000B0000926C
:100760000193380000210A4CA047050080239B011B
:1007700040229842CFD8790FF800009A019BA047F9
:10078000EA00821AD2B252032A43DBE7DD220000DC
:100790001D06000010B582B004000E4B1B78002B24
:1007A00007D0002905D10B4B5B78834210D01D2068
:1007B0000CE001A90C700C20074B98470C20074B4C
:1007C0009847044B5C7001221A70002002B010BDE3
:1007D0000020FBE728000020C11C0000351C0000A1
:1007E000404B984231D00AD93F4B98424DD03F4BB5
:1007F00098425AD03E4B984237D0002070473D4B2C
:1008000098420CD03C4B9842F7D1012917D00029CF
:100810005DD0022915D0032915D00020EEE701296B
:1008200007D0002951D0022905D0032905D0002086
:10083000E4E73248E2E73248E0E73248DEE73248B0
:10084000DCE73248DAE73248D8E7012907D0002947
:100850003FD0022905D0032905D00020CEE72D483E
:10086000CCE72D48CAE72D48C8E7012907D0002961
:1008700031D0022905D0032905D00020BEE7284841
:10088000BCE72848BAE72848B8E7012907D000297B
:1008900023D0022905D0032905D00020AEE7234844
:1008A000ACE72348AAE72348A8E7012907D0002995
:1008B00015D0022905D0032905D000209EE71E4847
:1008C0009CE71E489AE71E4898E71E4896E70320D3
:1008D00094E71D4892E71D4890E71D488EE71D48A4
:1008E0008CE7C0460010004200180042001C004285
:1008F0000014004200080042000C00420300050002
:1009000003000600030007000300010003001E00AF
:1009100003001F000300090003000A0003000B008E
:1009200003001100030012000300130003000D0078
:1009300003000E0003000F0003001700030018005F
:100940000300190003000400030008000300100066
:1009500003000C000300160030B587B00B4B6A464D
:1009600032CB32C232CB32C2009B83420BD0012346
:100970009A0069465258824206D00133062BF7D1BD
:10098000002007B030BD0023D8B2FAE7C024000031
:1009900070470000F0B50A4B1B78002B0CD1094FB3
:1009A000094E0A4D0024DE515A1914600433182BE5
:1009B000F9D10122024B1A708000024BC150F0BDE8
:1009C0002A0000202C000020910900009000002047
:1009D00000B583B007236A461370013353700133A7
:1009E00093700133D3700133137101335371034B8F
:1009F00098476B46185603B000BDC0465909000021
:100A000010B5024B1B680020984710BD2C00002039
:100A100010B5024B5B680120984710BD2C000020E8
:100A200010B5024B9B680220984710BD2C00002097
:100A300010B5024BDB680320984710BD2C00002046
:100A400010B5024B1B690420984710BD2C000020F4
:100A500010B5024B5B690520984710BD2C000020A3
:100A6000F0B5D6464F4680B58BB081460F001400D6
:100A7000030019600B689B0709D40B680520DB078E
:100A800000D4A4E00BB00CBC91469A46F0BD536A6A
:100A90000593936A0693D36A0793136B0893002612
:100AA00005AB01930AE03800A14B98470CE00F23F7
:100AB000184081422DD10136042E2FD0F1B2B3005F
:100AC000019A98580028EED0431CF4D00104090C78
:100AD000000CC3B29C460023020605D463465B09A2
:100AE000DB01944A924653441F2260460240981804
:100AF00040300078824680205546ED07D9D552080F
:100B00009B1830331878C0B26346DB07CFD5000995
:100B1000CFE700234A4613601C20B3E70C20864B26
:100B2000984722780025012A15D02178002926D15E
:100B30003B68E27E1204A07E02431C209A42A1D1AF
:100B40006369228B207F002801D0402002430820C7
:100B500003431D4314E004AA01006069774B9847E2
:100B600003001720002B00D08CE7BB7ADBB204AA6D
:100B7000127805309A4200D084E70C35D5E7002280
:100B80006368A0680343E06803432B43207C02436F
:100B9000607C002801D080200343A07C002802D084
:100BA000802080020243386802252B43834204D010
:100BB00000234A4613601C2064E77B689342F7D108
:100BC0004B465971237C4A46937100205AE708002E
:100BD0005B4B98475B4A116A851C0123AB400B4372
:100BE000136209A92026A35D0B700D30C5B2280041
:100BF000554B98472800554B9847A05D0021544B12
:100C000098472378012B20D02378002B03D13B6811
:100C1000082213433B604B461E6804AB80221A70C7
:100C200000225A7001219970DA702378002B01D1CB
:100C300004AB9A70636A0593A36A0693E36A079309
:100C4000236B0893002705AD11E03B680C2213438A
:100C50003B60D9E73000364B98470DE004A9087097
:100C6000000CC0B23B4B98470137042F07D0F9B2B4
:100C7000BB0058590028EDD0431CEFD1F4E723788E
:100C80004A465371237C9371A37CD371002202AB3B
:100C9000DA802378012B12D02378002B27D16069CA
:100CA000228B7369E17E0904A57E29431943716192
:100CB000237F1100002B1CD04021114319E04B462B
:100CC00018681F4B98470D30C0B21B4B9847010066
:100CD00002AB9A1D6069194B984703001720002B3F
:100CE00000D0CFE602AB06331B78B372D4E7002105
:100CF00000206368A2681343E26813430343227C25
:100D00000A43617C002903D113498978890701D5F9
:100D100080210B43A17C002902D0802189020A4353
:100D200031680B43336073681A4372600020A9E690
:100D3000E107000000440041DD1C0000D706000070
:100D40005909000000040040C11C0000351C0000CF
:100D500095070000B91D000000200041F0B5DE46F7
:100D600057464E464546E0B583B01723002A07D1C3
:100D7000180003B03CBC90469946A246AB46F0BD75
:100D80004379002B03D103689C7BA4070AD49346C4
:100D9000002401230225AC460235A846013A92B24E
:100DA0008A4623E002249C73F1E7B57B61460D423D
:100DB0002ED1B57B1D4200D1C2E00668B57B1D4235
:100DC000FCD0671CBFB251460D5D8179012923D04B
:100DD000ADB23C00B77B1F4202D0ED05ED0D35836F
:100DE000551EADB2C679002E1DD12A00594DAA421A
:100DF00070D04579002DE0D10668B57B1D42D4D175
:100E0000554DB77B1F42D0D1013D002DF9D1CCE724
:100E10000223B3730233ABE70234A4B25146CF5D71
:100E20003F023D43D6E751464579002D37D14B4D22
:100E3000019112E00234A4B24946019F795C090293
:100E4000009F0F431BE0013A92B20668B77B414610
:100E50000F421BD1013D002D18D0002AF5D00668A5
:100E6000B77B1F42F1D0671CB9B289460199095D71
:100E7000009181790129DDD069460F884C46B17B0C
:100E80001942E0D0FF05FF0D3783DCE70199B57B00
:100E900067463D4218D1B57B4646354252D006687A
:100EA000B57B47463D42FBD0B57B3D4207D0358AF6
:100EB0003D4200D037828579012D09D0358B5D46C2
:100EC000013DADB2AB4669E70223B37302334FE78E
:100ED000358BF4E74379012B0BD0002B34D1C27949
:100EE000002A00D144E704245B465D46002B19D15B
:100EF0003EE7016802228B7B1342FCD0002337E7D8
:100F00008B7B234222D08B7B234207D00B8A234248
:100F100000D00C828379012B10D00B8B013DADB238
:100F2000002D15D001688B7B2342E9D10A4B8A7BC7
:100F30002242E5D1013B002BF9D1E1E70B8BEDE734
:100F4000122315E7122313E7002311E712230FE7FB
:100F500000230DE7FFFF000010270000112700000D
:100F6000F0B5DE4657464E464546E0B58DB0050025
:100F70000C001600296008007E4B98470200236889
:100F80000520DB0706D50DB03CBC90469946A2462D
:100F9000AB46F0BD236817309B07F4D47649086A46
:100FA000971C0123BB4003430B620BA9737F0B709B
:100FB0000D32D7B23800714B98473800704B9847C4
:100FC000707F00216F4B9847F37A6B71337DAB7163
:100FD000737DEB712B6898461800664B98470D306F
:100FE00000220E2302A98C4663441A8033680393BF
:100FF000F3689A46B37D9B4673689946002B14D0DC
:1010000080235B05994530D1F37D002B31D13369C5
:101010001F00C0B25C4B984701000E2202AB9C46F9
:1010200062443800594B984720E0F37D002B0BD0E9
:101030001023009300230E2202A98C466244B1695A
:101040003069534FB84711E033691F00C0B24E4BAF
:10105000984701001023009300230E2202A8844623
:10106000624438004A4FB84700E00020002800D012
:1010700089E70E2302AA944663441B8842465381A3
:101080005346039F1F434B461F435B465B071F436B
:10109000F37D002B01D104331F43317D4904737D5F
:1010A0001B040B43B17AF27A114319433389FF2BA6
:1010B00003D08022520417431943337F002B03D1FE
:1010C000344B9B789B0701D580231F432A68138AE2
:1010D0001BB2002BFBDB434659602A68138A1BB204
:1010E000002BFBDB43461F600AAB80221A700022F4
:1010F0005A70DA709A70336A0693736A0793B36A08
:101100000893F36A03930993002706AE06E02000D4
:10111000214B984707E00137042F0DD0F9B2BB00EF
:1011200098590028F3D0431CF5D00AA90870000C88
:10113000C0B21A4B9847EEE70023AB60EB602B611F
:10114000AB616B610022EB83AB832033EA54013344
:10115000EA540133EA540133EA542868054B9847AE
:1011600004000F490F4B9847A4000F4BE550002097
:1011700009E7C0465909000000040040C11C0000F6
:10118000351C000095070000DD1C0000D70600009C
:101190000107000000200041E1070000B91D000028
:1011A000491200009509000090000020C2791C231C
:1011B000002A01D118007047C28B92B2173B002A57
:1011C000F8D1026811830221937B0B42FCD00023EB
:1011D000F0E70000F8B506000C00150007680A4BA0
:1011E0009847B38B9BB2002B03D0084B9847052040
:1011F000F8BDB583054B9847746105222223F2544C
:101200001E3B7B730020F3E7DD1700001D18000074
:10121000931C9B0019502021012393401A00435C2A
:10122000134343547047000010B51723002A01D11F
:10123000180010BD84790533002CF9D0014B984774
:101240000300F5E7D5110000F8B58000464BC558FE
:101250002C68238A1BB2002BFBDBA37B667B1E4022
:101260002023EB5C2122AF5C1F40F30722D5EB8BE0
:101270009BB2002B1CD0AA691378DBB2511CA96168
:10128000697901290ED09BB2DB05DB0D2383EB8B43
:10129000013B9BB2EB83002B0CD101332373013351
:1012A000637307E0517809020B430232AA61EBE74E
:1012B00001232373B30706D50223237300222133AE
:1012C000EA54FB0716D473074DD5AB8B9BB2002BAA
:1012D00047D0238ADBB25A0720D09A070ED51A22AC
:1012E0002223EA54203B23827B073CD52B6928002C
:1012F000984738E02800AB689847E4E75A0705D5D7
:101300001E222223EA541E3B2382EDE7DB07EBD5A6
:1013100013222223EA54213B2382E5E7238BDB05BA
:10132000DB0DDAB269690A706A69511C6961697911
:10133000012910D0AB8B013B9BB2AB83002B12D1A8
:101340000433237300221E33EA54BB070BD5EB682A
:101350002800984707E01B0A53706B6901336B61E3
:10136000E8E704232373F8BD9000002030B583B074
:1013700001AB0201080A104318705970064C402551
:10138000A561022219000548054B98476561431E77
:10139000984103B030BDC04680440041F4000020B5
:1013A0005D0D000010B5084B99781A781143DA7872
:1013B00011431A791143DA8811431B89194300201C
:1013C000024B984710BDC046480000206D13000036
:1013D00070B50100184C26222000184B9847184B76
:1013E0009847A17AA38919430120164DA847A17BEC
:1013F000238A19430220A847A17CA38A194303200A
:10140000A847A17DE37D19430420A847217E638B73
:101410001943A38B19430520A847A17F2023E35C30
:1014200019432123E35C1943638C1943A38C1943AB
:101430000620A847002070BD480000207923000046
:10144000A51300006D13000010B50122024B1A70A5
:10145000024B9847002010BD48000020A513000053
:10146000F8B5DE4657464E464546E0B58146012072
:101470004B46642B28D81A4B1A884B46D31AD917D7
:101480005B184B4028214B439BB2914522D28021CF
:101490004903144A916198460024124F80239B030C
:1014A0009A469B465B46BB61FA26760030000E4D9D
:1014B000A84753467B613000A84701344445F1DD1D
:1014C000074B4A461A8000203CBC90469946A246EB
:1014D000AB46F8BD80214903024A5161DBE7C046B3
:1014E00044000020004400414501000070B51E4B3F
:1014F0001868437E5BB2002BFBDB037B02221343A5
:101500000373437E5BB2002BFBDB01210425022425
:1015100001E011420AD1037EDBB20A001A401D42EB
:1015200000D022431C42F4D02A43F2E7437E5BB250
:10153000002BFBDB418B89B20C4B19800123037616
:10154000027ED2B21340540701D5022423439207EE
:1015500001D5042213435B0701D502230376044817
:10156000044B9847002070BDFC0000206E00002056
:10157000D82400005D16000010B5044B9847044BBA
:101580001A88044B1A80002010BDC046ED140000DC
:101590006E0000207000002010B50248024B9847F2
:1015A00010BDC046E02400005D16000070B584B296
:1015B000034E044D21003000A8470028FAD170BD29
:1015C000A8000020AD11000070B58CB08023DB05B1
:1015D000009300230193FF2269460A818B72CB722C
:1015E00096229201049201246A460C754C758B7503
:1015F000CB7506930B774B77C4239B03039301238F
:101600005B42089309930E4B0A930E4B0B930E4EBD
:101610000E4930000E4B9847356828000D4B98470F
:101620001F23184084400C4B1C603268138A1BB285
:10163000002BFBDB2B68022213432B600CB070BD28
:101640000200180002001900A80000200014004247
:10165000610F0000D109000000E100E00FB4F0B517
:10166000DE4657464E464546E0B58FB00124564B00
:101670009B460DE06A1C18926B78732B14D0642B78
:1016800025D0632B54D0782B5ED0002A00D190E077
:10169000189D2878002800D18BE02528EAD04B4BF4
:1016A000984701351895F3E7671CA40018AB9C46D2
:1016B000644424682078002805D0444EB0470134A3
:1016C00020780028FAD1023518953C00E0E7631C29
:1016D0000193A40018AB9C466444266802AB98466C
:1016E00000273B4B9A463B4B994600E027007C1C69
:1016F0000A213000D047434602C398460A213000F1
:10170000C847061EF2D1002C0ED0BF0002AB9C468B
:1017100067442D4B98462D4E013C43463A68985CF1
:10172000B047043F002CF7D102351895019CAFE774
:10173000661CA40018AB9C4664442078234B984751
:10174000023518953400A3E7671CA40018AB9C462B
:101750006444236802AA00210F2600E021004C1CEB
:101760003000184001C21B09F8D1E30704D5A400DA
:10177000002302AAA3508C1C012C14D9002C0ED0DB
:10178000154BE618B60002AB9C466644013C5B462E
:101790003268985C0D4B9847043E002CF6D1023518
:1017A00018953C0074E7A300002202A95A500134A6
:1017B000E4E70FB03CBC90469946A246AB46F0BC6D
:1017C00008BC04B01847C046F0240000AD15000066
:1017D000D1220000C5210000FFFFFF3F0C4B1B681A
:1017E000002B06D1EFF31083002B07D00022094B0A
:1017F0001A70074A136801331360704772B6BFF35B
:101800005F8F0022044B1A700132024B1A70F0E70E
:10181000740000207800002008000020084B1A689F
:10182000013A1A601B68002B09D1064B1B78002B6C
:1018300005D00122044B1A70BFF35F8F62B6704768
:10184000740000207800002008000020F0B583B06C
:1018500001AC012565700027A770257021000E20BE
:10186000064EB0478022D201054B9A612770657001
:1018700021000F20B04703B0F0BDC046851800001E
:101880000044004100B583B001AB80221A700A7891
:101890005A704A789A708A78DA701900014B984722
:1018A00003B000BDB91D000010B5072803D88000A3
:1018B000164B1B589F46002027E0154BD86824E0A4
:1018C000144B1B6A9B059B0F1348D8401DE0104B1F
:1018D00018691AE00E4B1B6800209B0715D50D49AF
:1018E0001022CB681A42FCD0094B1B685B0701D45D
:1018F0000A480AE000200A4B9847054B9B681B04E6
:101900001B0C584301E08020000210BD042500009C
:101910007C0000200008004000127A00006CDC020D
:10192000DD1C000070B50C490B6A0478857840789E
:101930000122104080014026B34303432A40D201D4
:1019400080208343134303222240120203480340B2
:1019500013430B6270BDC04600080040FFFCFFFF50
:10196000072803D880001E4B1B589F46172036E0DF
:101970001C4A136A02210B43136200202FE0194A0C
:10198000936902210B439361002028E0154A138AD2
:1019900002210B431382002021E0124A938A022184
:1019A0000B43938200201AE00F4B1A6802210A436E
:1019B0001A601B680D4A13400A4A938411001022D2
:1019C000CB681A42FCD0084A9168064BD96251682C
:1019D0009962126892B29A84002000E00020704759
:1019E00024250000000800407C0000207FFF00004C
:1019F00030B585B0C222D2001A4B9A601A4A536899
:101A00001E218B43536001236A4613700024174D37
:101A1000E0B26946A84701341C2CF9D103A8002480
:101A20004470012585700470114B98470620114BB6
:101A30009847114B9847114B1C725C729C72DC7278
:101A400001956B465C7006236A46137014725472DB
:101A5000694600200A4B984700200A4B984705B07A
:101A600030BDC0460008004000400041C11C0000DD
:101A70002519000061190000891A000000040040C7
:101A8000AD1A0000651B0000064A936908210B434C
:101A900093610122044B1A7019000B781342FCD198
:101AA0007047C04600040040000C004070B50600BE
:101AB00004000D782D0205434B78002B02D08023C3
:101AC000DB021D434B7A002B02D080231B031D43F6
:101AD0004868012810D9431E184234D1022830D951
:101AE0000223002201325B009842FBD812023243EB
:101AF000140080235B031D430B7A002B02D080234C
:101B00009B031D43134A53785BB2002BFBDB124B44
:101B10009847124B1E700F4A53785BB2002BFBDBC9
:101B20000C4B9C601A0053785BB2002BFBDB094A1C
:101B30005368802149020B401D435560084B98476C
:101B400070BD0022D2E70402344380239B021D4370
:101B5000D2E7C046000C0040DD170000080C004032
:101B60001D18000010B504000B4A53785BB2002B1F
:101B7000FBDB0A4B98470A4B1C70074A53785BB251
:101B8000002BFBDB044A516880235B020B4353604C
:101B9000044B984710BDC046000C0040DD17000004
:101BA000040C00401D18000070B504001A4A537858
:101BB0005BB2002BFBDB194B9847194B1C70164A84
:101BC00053785BB2002BFBDB134E7068C004C00E71
:101BD000144B98470500124B1C707668F602F60FFE
:101BE000114B1C700C4A53785BB2002BFBDB0A4B89
:101BF0009C682402240C0D4B9847002E07D1012C21
:101C000007D9210028000A4B9847050001E001345C
:101C1000E540280070BDC046000C0040DD17000004
:101C2000040C0040A9180000080C00401D1800001A
:101C3000C521000010B50400064B9847064B1C70E8
:101C4000064A53888021C9010B435380044B9847AF
:101C500010BDC046DD170000020C0040000C004023
:101C60001D18000010B504000F4B98470F4B1C7057
:101C70000F4A53881B05180F53880E490B40538099
:101C800053880D490B40538011008022D2014B88AC
:101C90001342FCD106494A88030206480240134316
:101CA0004B80064B984710BDDD170000020C00402A
:101CB000000C0040FFF0FFFFFFBFFFFF1D180000FA
:101CC00010B50C7824020443024B9847A4B2024B8F
:101CD0005C8010BD651C0000000C004010B50400C5
:101CE000064B9847064B1C70064B5C882405240F56
:101CF000054B98472000054B984710BDDD170000A5
:101D0000020C0040000C00401D180000A91B000040
:101D100030B5D378002B35D11378802B29D01B0612
:101D200080246402234354780225AC4306D194787E
:101D3000002C20D18024A402234341605478013C2C
:101D4000012C1CD90D042D0CA024E4052C431C43AC
:101D500084620D0CD02424062C431C438462D47866
:101D6000002C22D15B031CD59378012B1ED041613E
:101D700017E00023D7E7C024E4022343DDE70D4C3E
:101D80002340DFE741600C04240CA023DB05234340
:101D900083620C0CD0231B0623438362D378002B71
:101DA00003D15378013B012B02D930BD8161F8E7A3
:101DB0008160FAE7FFFFFBFF10B50A00C1090023AD
:101DC000002904D14309DB0105498C4663441F24E3
:101DD0002040012181401800024B984710BDC046A9
:101DE00000440041111D00007047000010B5054B74
:101DF0009847054B9847054B9847054B9847054B27
:101E0000984710BDF11900004D180000E91D0000B1
:101E1000E91D0000E91D0000FEE7000010B51A4AA8
:101E20001A4B9A4211D01A00194B9A420DD2194AF4
:101E300003339B1A9B0801339B000022134812496D
:101E40008C58845004329A42FAD1134A134B9A4266
:101E50000AD2D34311495B1803218B4304339B18E7
:101E6000002102C29342FCD10D4AFF210D4B8B434E
:101E700093600D4A53687F390B4353600B4B98476F
:101E80000B4B9847FEE7C0466C2500000000002081
:101E90000C000020040000200C00002004010020A1
:101EA00000ED00E000000000004000413123000090
:101EB000B51E0000F0B58FB09E4B98479E4B9847DB
:101EC0009E4B984700266B469E7001271F70022389
:101ED0006A46537069461420994DA84769461520F3
:101EE000A84769462620A847964C2623237066708B
:101EF000A6706B465F709E701F7069462620A847CB
:101F000022785309D0090021002802D1DB018E4933
:101F100059181F23134001221000984088616B4616
:101F20001A700023019369460B744B748A741F3234
:101F30008B54143A002105A8844B9847844B059391
:101F4000C0239B05029380235B020393814B09937B
:101F500001235B420A93804B0B93804B0C93804C84
:101F60006A4680492000804B984723681A8A12B23B
:101F7000002AFBDB1A6802210A431A6000236A4622
:101F800093700820D0701371C02292006946CA80F5
:101F9000C02212010A8196228A726B32FF328A8134
:101FA00080216C46A17300246D462B82FF256E466E
:101FB000B574B3821025B5750F3DF575B477F0771C
:101FC00018303054013031547384B3844021684652
:101FD00031767283B383654B9847654B9847684663
:101FE000644B9847C0235B016A46F3813473032333
:101FF0007370614C61492000614B984723685A7E99
:1020000052B2002AFBDB0F229A751A761A78022147
:102010000A431A70584B1A68537E5BB2002BFBDBE5
:102020008023DB05009300230193FF2269460A8188
:102030008B72CB7296229201049201220A754A7524
:102040008B75CB7506930B774B7780235B030393DC
:102050004C4B08934C4B099301235B420A930B931F
:102060004A4D4B4C06E0FA2080004A4B98474A48BC
:102070004A4B98476A464A492800A0470028F2D1AF
:10208000424D2C682000474B98471F2318401E3BA9
:102090008340454A13602A68138A1BB2002BFBDB7E
:1020A0002368022213432360384B1B681A8A12B23A
:1020B000002AFBDB5968802252020A435A60012140
:1020C000324AD1711A8A12B2002AFBDB1A8A12B282
:1020D000002AFBDB5968802292020A435A600121E0
:1020E0002A4A91711A8A12B2002AFBDB274C01227C
:1020F0002E4920002E4B98472122A35C02210B433E
:10210000A3542C4B984701222B4B1A70BFF35F8FBF
:1021100062B61E4E294D2A4C02220DA93000A84756
:102120000A20A0470020A047FA208000194B9847BA
:10213000F2E7C046ED1D000005010000C9150000D2
:1021400085180000F0000020004400418B230000AF
:10215000A08601000300040003000600030007003E
:10216000F400002000080042610A0000D1130000C2
:10217000491400009D010000FC00002000400042C6
:10218000E50100000300280003002900CC00002026
:10219000610F000071010000442500005D16000081
:1021A00000180042D109000000E100E0991500008C
:1021B000111200007915000008000020291200000B
:1021C00061140000002243088B4274D303098B4240
:1021D0005FD3030A8B4244D3030B8B4228D3030CF7
:1021E0008B420DD3FF22090212BA030C8B4202D399
:1021F0001212090265D0030B8B4219D300E0090AC1
:10220000C30B8B4201D3CB03C01A5241830B8B42C9
:1022100001D38B03C01A5241430B8B4201D34B03B2
:10222000C01A5241030B8B4201D30B03C01A524117
:10223000C30A8B4201D3CB02C01A5241830A8B429C
:1022400001D38B02C01A5241430A8B4201D34B0285
:10225000C01A5241030A8B4201D30B02C01A5241E9
:10226000CDD2C3098B4201D3CB01C01A524183099D
:102270008B4201D38B01C01A524143098B4201D3D7
:102280004B01C01A524103098B4201D30B01C01A02
:102290005241C3088B4201D3CB00C01A524183087C
:1022A0008B4201D38B00C01A524143088B4201D3A9
:1022B0004B00C01A5241411A00D201465241104609
:1022C0007047FFE701B5002000F006F802BDC046E8
:1022D0000029F7D076E770477047C046F0B5CE4684
:1022E000474615042D0C2E0080B50704140C3F0C36
:1022F0009946030C7E435D43674363437F19340C67
:10230000E4199C46A54203D980235B029846C44445
:102310004B46514343433604360C250C2404654494
:10232000A4195918491920000CBC90469946F0BDD3
:1023300070B500260C4D0D4C641BA410A64209D1AB
:10234000002600F003F90A4D0A4C641BA410A642B3
:1023500005D170BDB300EB5898470136EEE7B300E6
:10236000EB5898470136F2E7582500005825000041
:10237000582500005C250000002310B59A4200D1CA
:1023800010BDCC5CC4540133F8E7030082189342BB
:1023900000D1704719700133F9E70000AC03000069
:1023A0000A0600000A0600000A0600000A060000ED
:1023B0000A0600000A0600000A0600000A060000DD
:1023C0000A0600000A0600000A0600000A060000CD
:1023D0000A0600000A0600000A0600008C0300003E
:1023E0000A0600000A0600000A0600000A060000AD
:1023F0000A0600000A0600000A0600000A0600009D
:102400000A0600000A0600000A0600000A0600008C
:102410000A0600000A0600000A060000A4030000E5
:102420000A0600000A0600000A0600000A0600006C
:102430000A0600000A0600000A0600000A0600005C
:102440000A0600000A0600000A0600000A0600004C
:102450000A0600000A0600000A0600009C030000AD
:10246000B40300006C0300007C0300007403000050
:102470000200000003000000280000002900000006
:102480000400000005000000060000000700000036
:1024900020000000210000002200000023000000B6
:1024A0002400000025000000260000002700000096
:1024B00008000000090000000A0000000B000000F6
:1024C00000080042000C00420010004200140042CC
:1024D00000180042001C00422564200A0D00000084
:1024E00043616C6C6261636B206669726564210094
:1024F000303132333435363738396162636465667A
:1025000000000000BA180000B6180000B61800005D
:102510000619000006190000CE180000C0180000BF
:10252000D41800008C1900006C1900006C19000010
:10253000DC1900007E1900009A19000070190000D3
:10254000A81900005761697400000000F8B5C04682
:10255000F8BC08BC9E467047CD000000F8B5C046E8
:0C256000F8BC08BC9E467047A5000000B7
:0C256C00401F00000800000001000000FB
:0400000300001E1DBE
:00000001FF
