S01200005069636B4E506C6163652E7372656358
S113000078210020912D00008D2D00008D2D000001
S113001000000000000000000000000000000000DC
S11300200000000000000000000000008D2D000012
S113003000000000000000008D2D00008D2D000048
S11300408D2D00008D2D00008D2D00008D2D0000C4
S11300508D2D00008D2D00008D2D0000010A000063
S1130060110A0000210A0000310A0000410A0000C0
S1130070510A0000B1140000C1140000D1140000A2
S1130080E1140000F1140000011500001115000036
S1130090211500008D2D00008D2D00008D2D0000F8
S11300A08D2D000010B5064C2378002B07D1054B8D
S11300B0002B02D0044800E000BF0123237010BDD0
S11300C02C00002000000000DC3C0000084B10B5B0
S11300D0002B03D00749084800E000BF0748036825
S11300E0002B00D110BD064B002BFBD09847F9E73D
S11300F00000000030000020DC3C0000DC3C00007C
S11301000000000070B50020084B98470500084C1B
S1130110FA218900A047074B186007492800A04727
S1130120064B18600522064B1A6070BD1D2B00009B
S1130130B93200000000002040420F0004000020FB
S113014010E000E030B5084B1C68084A0025802107
S11301504902013807D3002CFBD054609560136822
S11301600B42FCD0F5E730BD0400002010E000E0B5
S113017030B5084B1C68084A002580214902013823
S113018007D3002CFBD05460956013680B42FCD05D
S1130190F5E730BD0000002010E000E010B50022BB
S11301A000230270427000214280017103760262D2
S11301B0C26182600373C0246401C4810374437404
S11301C08374C37403752A24035543758375063CED
S11301D00355C2840285C1752B23C1540133C15414
S11301E010BD0000F0B5DE4657464E464546E0B524
S11301F097B0070016000160C94A106A80235B02A9
S1130200034313620B780520DB0706D517B03CBC0B
S113021090469946A246AB46F0BD0B7817309B0733
S1130220F4D473783B71002B04D1BE4A136C0421BF
S11302300B431364BC4B1B681B051B0F98463B68A0
S11302409B4633786A46137069461720B74B984724
S11302501720B74B98472C23F25C002A5AD0013B55
S1130260F55C337BEB18DBB2D118C9B28B4227D2D1
S11302705219D3B29946AF4B9A4633004E46B9460B
S11302801F0003E00135EDB2AE4217D00F242C401D
S11302903B7BE4185022A84902A8D047132CF1D87C
S11302A0A40002ABE05801A900234B70CB708B7003
S11302B001330B70C0B2A14B9847E3E73E004F46B1
S11302C0F48950229C4902A89A4B9847132C13D9BD
S11302D0737D9B00DBB25A461370B37DDB017278E9
S11302E01343DBB25A4653703379342B00D98CE173
S11302F09B00934AD3589F46A40002ABE05801A93F
S113030000234B70CB708B7001330B70C0B28B4BDE
S11303109847DDE7347B5022874902A8854B9847EC
S1130320132C15D9F4895022834902A8814B98478C
S1130330132CCDD8A40002ABE05801A900234B70C4
S1130340CB708B7001330B70C0B27C4B9847BFE706
S1130350A40002ABE05801A900234B70CB708B7052
S113036001330B70C0B2754B9847DBE704231024AC
S1130370022122E0717C337C10241EE04346022BD0
S113038000D8C4E006231024012116E04346022BC2
S113039000D8C0E00823102400210EE000233024FC
S11303A000210AE000232024002106E00023002489
S11303B0002102E0022310240121090170220A40D5
S11303C013435A469370F37D17203F2B00D91DE742
S11303D0D3703A68537E5BB2002BFBDBF37C7288EC
S11303E013432422B25CD2001343327D92001343A0
S11303F0B27C5200134323435A469380337E002B2E
S113040020D0102C00D1E2E000D8A1E0202C00D1B3
S1130410BFE0302C16D1F27C002A0AD0F269803277
S11304201720FF2A00D9F1E6326A8032FF2A00D968
S1130430ECE61720F269FF2A00DDE7E6326AFF2ABC
S113044000DDE3E639684A7E52B2002AFBDB5A46F5
S113045013723A68537E5BB2002BFBDBB38B5A46B4
S113046093833A68537E5BB2002BFBDB338C5A4692
S113047013842C23F35C002B05D0013BDBB2172043
S11304800F2B00D9C2E62B22B15C17200F2900D90B
S1130490BCE63868427E52B2002AFBDBF289307B2C
S11304A00243B068024309050A431B0413435A4636
S11304B013612A23F35C13750F2393751533F35CCF
S11304C0002B12D0F38C1F4A1720934200D99DE6CB
S11304D05A469384328D80231B01D31819499BB249
S11304E08B4200D992E65B46DA84174B1B685B01AA
S11304F0E022D2001340154A516849011268D20E15
S11305000A43D2B213435A46138500207EE60623DB
S11305101024032151E70823102404214DE7C04689
S1130520000400400008004018200041352C000061
S1130530A92B000041360000383700002D2D0000A3
S113054064360000FF0F00002460800020608000FB
S1130550002C00D076E7F27C002A0FD0F2698021CB
S113056009018C4662442A4917208A4200D94DE683
S1130570326A624426498A4200D947E6244A17204F
S1130580F169914200DD41E6316A914200DD3DE6C8
S113059058E7F27C002A0FD0F269802189008C464A
S11305A062441C4917208A4200D92FE6326A624409
S11305B018498A4200D929E6164A1720F16991425E
S11305C000DD23E6316A914200DD1FE63AE7F27C62
S11305D0002A0FD0F269802109028C4662440E4938
S11305E017208A4200D911E6326A62440A498A42D3
S11305F000D90BE6084A1720F169914200DD05E6AF
S1130600316A914200DD01E61CE71720FEE5C04691
S1130610FF0F0000FF030000FFFF0000F0B5DE46FF
S113062057464E464546E0B587B0804604911600CD
S11306301F000022002300218B463F2401202100BB
S1130640009601975C4603944446059413E02024E5
S1130650641A0500E540A84614E0009C019D121BA5
S1130660AB415C464D462C43A346039C45462C4374
S11306700394013925D3202464420C19E7D40500DE
S1130680A540A84604008C40A14692185B41140082
S11306901D00059E4F463E40B446049E47463E40DC
S11306A0B246664657463E4303D006002643320010
S11306B02B00009C019D9D42DBD8CED19442D8D81A
S11306C0CBE7039B5846190007B03CBC90469946BB
S11306D0A246AB46F0BD10B5490840230024814230
S11306E002D2180010BD1C00091A631C9BB2884278
S11306F0F9D94023FF2CF4D814800023F1E700003B
S1130700F0B583B00F00160008AA117804004C431A
S11307104022BC4202D9100003B0F0BD002B14D11A
S1130720020008000021194CA04701003A000023F0
S11307300020174CA04700220123121A8B41120CEF
S11307401B041A4332800022E5E70022012BF9D171
S11307500A00002300210D4CA04702000B00009268
S11307600193380000210A4CA047050080239B0117
S113077040229842CFD8790FF800009A019BA047F5
S1130780EA00821AD2B252032A43DBE7A5350000FD
S11307901D06000010B582B004000E4B1B78002B20
S11307A007D0002905D10B4B5B78834210D01D2064
S11307B00CE001A90C700C20074B98470C20074B48
S11307C09847044B5C7001221A70002002B010BDDF
S11307D00020FBE748000020352C0000A92B000076
S11307E0404B984231D00AD93F4B98424DD03F4BB1
S11307F098425AD03E4B984237D0002070473D4B28
S113080098420CD03C4B9842F7D1012917D00029CB
S11308105DD0022915D0032915D00020EEE7012967
S113082007D0002951D0022905D0032905D0002082
S1130830E4E73248E2E73248E0E73248DEE73248AC
S1130840DCE73248DAE73248D8E7012907D0002943
S11308503FD0022905D0032905D00020CEE72D483A
S1130860CCE72D48CAE72D48C8E7012907D000295D
S113087031D0022905D0032905D00020BEE728483D
S1130880BCE72848BAE72848B8E7012907D0002977
S113089023D0022905D0032905D00020AEE7234840
S11308A0ACE72348AAE72348A8E7012907D0002991
S11308B015D0022905D0032905D000209EE71E4843
S11308C09CE71E489AE71E4898E71E4896E70320CF
S11308D094E71D4892E71D4890E71D488EE71D48A0
S11308E08CE7C0460010004200180042001C004281
S11308F00014004200080042000C004203000500FE
S113090003000600030007000300010003001E00AB
S113091003001F000300090003000A0003000B008A
S113092003001100030012000300130003000D0074
S113093003000E0003000F0003001700030018005B
S11309400300190003000400030008000300100062
S113095003000C000300160030B587B00B4B6A4649
S113096032CB32C232CB32C2009B83420BD0012342
S11309709A0069465258824206D00133062BF7D1B9
S1130980002007B030BD0023D8B2FAE78837000052
S113099070470000F0B50A4B1B78002B0CD1094FAF
S11309A0094E0A4D0024DE515A1914600433182BE1
S11309B0F9D10122024B1A708000024BC150F0BDE4
S11309C04A0000204C00002091090000C4000020CF
S11309D000B583B007236A461370013353700133A3
S11309E093700133D3700133137101335371034B8B
S11309F098476B46185603B000BDC046590900001D
S1130A0010B5024B1B680020984710BD4C00002015
S1130A1010B5024B5B680120984710BD4C000020C4
S1130A2010B5024B9B680220984710BD4C00002073
S1130A3010B5024BDB680320984710BD4C00002022
S1130A4010B5024B1B690420984710BD4C000020D0
S1130A5010B5024B5B690520984710BD4C0000207F
S1130A60F0B5D6464F4680B58BB081460F001400D2
S1130A70030019600B689B0709D40B680520DB078A
S1130A8000D4A4E00BB00CBC91469A46F0BD536A66
S1130A900593936A0693D36A0793136B089300260E
S1130AA005AB01930AE03800A14B98470CE00F23F3
S1130AB0184081422DD10136042E2FD0F1B2B3005B
S1130AC0019A98580028EED0431CF4D00104090C74
S1130AD0000CC3B29C460023020605D463465B099E
S1130AE0DB01944A924653441F2260460240981800
S1130AF040300078824680205546ED07D9D552080B
S1130B009B1830331878C0B26346DB07CFD5000991
S1130B10CFE700234A4613601C20B3E70C20864B22
S1130B20984722780025012A15D02178002926D15A
S1130B303B68E27E1204A07E02431C209A42A1D1AB
S1130B406369228B207F002801D0402002430820C3
S1130B5003431D4314E004AA01006069774B9847DE
S1130B6003001720002B00D08CE7BB7ADBB204AA69
S1130B70127805309A4200D084E70C35D5E700227C
S1130B806368A0680343E06803432B43207C02436B
S1130B90607C002801D080200343A07C002802D080
S1130BA0802080020243386802252B43834204D00C
S1130BB000234A4613601C2064E77B689342F7D104
S1130BC04B465971237C4A46937100205AE708002A
S1130BD05B4B98475B4A116A851C0123AB400B436E
S1130BE0136209A92026A35D0B700D30C5B228003D
S1130BF0554B98472800554B9847A05D0021544B0E
S1130C0098472378012B20D02378002B03D13B680D
S1130C10082213433B604B461E6804AB80221A70C3
S1130C2000225A7001219970DA702378002B01D1C7
S1130C3004AB9A70636A0593A36A0693E36A079305
S1130C40236B0893002705AD11E03B680C22134386
S1130C503B60D9E73000364B98470DE004A9087093
S1130C60000CC0B23B4B98470137042F07D0F9B2B0
S1130C70BB0058590028EDD0431CEFD1F4E723788A
S1130C804A465371237C9371A37CD371002202AB37
S1130C90DA802378012B12D02378002B27D16069C6
S1130CA0228B7369E17E0904A57E2943194371618E
S1130CB0237F1100002B1CD04021114319E04B4627
S1130CC018681F4B98470D30C0B21B4B9847010062
S1130CD002AB9A1D6069194B984703001720002B3B
S1130CE000D0CFE602AB06331B78B372D4E7002101
S1130CF000206368A2681343E26813430343227C21
S1130D000A43617C002903D113498978890701D5F5
S1130D1080210B43A17C002902D0802189020A434F
S1130D2031680B43336073681A4372600020A9E68C
S1130D30E107000000440041512C0000D7060000E8
S1130D405909000000040040352C0000A92B0000C4
S1130D50950700002D2D000000200041F0B5DE466F
S1130D6057464E464546E0B583B01723002A07D1BF
S1130D70180003B03CBC90469946A246AB46F0BD71
S1130D804379002B03D103689C7BA4070AD49346C0
S1130D90002401230225AC460235A846013A92B24A
S1130DA08A4623E002249C73F1E7B57B61460D4239
S1130DB02ED1B57B1D4200D1C2E00668B57B1D4231
S1130DC0FCD0671CBFB251460D5D8179012923D047
S1130DD0ADB23C00B77B1F4202D0ED05ED0D35836B
S1130DE0551EADB2C679002E1DD12A00594DAA4216
S1130DF070D04579002DE0D10668B57B1D42D4D171
S1130E00554DB77B1F42D0D1013D002DF9D1CCE720
S1130E100223B3730233ABE70234A4B25146CF5D6D
S1130E203F023D43D6E751464579002D37D14B4D1E
S1130E30019112E00234A4B24946019F795C09028F
S1130E40009F0F431BE0013A92B20668B77B41460C
S1130E500F421BD1013D002D18D0002AF5D00668A1
S1130E60B77B1F42F1D0671CB9B289460199095D6D
S1130E70009181790129DDD069460F884C46B17B08
S1130E801942E0D0FF05FF0D3783DCE70199B57BFC
S1130E9067463D4218D1B57B4646354252D0066876
S1130EA0B57B47463D42FBD0B57B3D4207D0358AF2
S1130EB03D4200D037828579012D09D0358B5D46BE
S1130EC0013DADB2AB4669E70223B37302334FE78A
S1130ED0358BF4E74379012B0BD0002B34D1C27945
S1130EE0002A00D144E704245B465D46002B19D157
S1130EF03EE7016802228B7B1342FCD0002337E7D4
S1130F008B7B234222D08B7B234207D00B8A234244
S1130F1000D00C828379012B10D00B8B013DADB234
S1130F20002D15D001688B7B2342E9D10A4B8A7BC3
S1130F302242E5D1013B002BF9D1E1E70B8BEDE730
S1130F40122315E7122313E7002311E712230FE7F7
S1130F5000230DE7FFFF0000102700001127000009
S1130F60F0B5DE4657464E464546E0B58DB0050021
S1130F700C001600296008007E4B98470200236885
S1130F800520DB0706D50DB03CBC90469946A24629
S1130F90AB46F0BD236817309B07F4D47649086A42
S1130FA0971C0123BB4003430B620BA9737F0B7097
S1130FB00D32D7B23800714B98473800704B9847C0
S1130FC0707F00216F4B9847F37A6B71337DAB715F
S1130FD0737DEB712B6898461800664B98470D306B
S1130FE000220E2302A98C4663441A8033680393BB
S1130FF0F3689A46B37D9B4673689946002B14D0D8
S113100080235B05994530D1F37D002B31D13369C1
S11310101F00C0B25C4B984701000E2202AB9C46F5
S113102062443800594B984720E0F37D002B0BD0E5
S11310301023009300230E2202A98C466244B16956
S11310403069534FB84711E033691F00C0B24E4BAB
S1131050984701001023009300230E2202A884461F
S1131060624438004A4FB84700E00020002800D00E
S113107089E70E2302AA944663441B88424653819F
S11310805346039F1F434B461F435B465B071F4367
S1131090F37D002B01D104331F43317D4904737D5B
S11310A01B040B43B17AF27A114319433389FF2BA2
S11310B003D08022520417431943337F002B03D1FA
S11310C0344B9B789B0701D580231F432A68138ADE
S11310D01BB2002BFBDB434659602A68138A1BB200
S11310E0002BFBDB43461F600AAB80221A700022F0
S11310F05A70DA709A70336A0693736A0793B36A04
S11311000893F36A03930993002706AE06E02000D0
S1131110214B984707E00137042F0DD0F9B2BB00EB
S113112098590028F3D0431CF5D00AA90870000C84
S1131130C0B21A4B9847EEE70023AB60EB602B611B
S1131140AB616B610022EB83AB832033EA54013340
S1131150EA540133EA540133EA542868054B9847AA
S113116004000F490F4B9847A4000F4BE550002093
S113117009E7C0465909000000040040352C00006E
S1131180A92B000095070000512C0000D706000091
S11311900107000000200041E10700002D2D0000A0
S11311A0F512000095090000C4000020C2791C2338
S11311B0002A01D118007047C28B92B2173B002A53
S11311C0F8D1026811830221937B0B42FCD00023E7
S11311D0F0E70000F0B5CE46474680B583B0050081
S11311E001911720002A04D103B00CBC9046994603
S11311F0F0BDEB790530002BF6D02C68013A93B2A0
S1131200994600260127204B984611E0731C9BB297
S1131210019A915D6A79012A17D089B21E002800CB
S11312201A4B98474B46013B9BB29946434513D012
S1131230A37B3B42EAD1144BA27B3A42E6D1012B79
S113124019D0013B002BF7D1E0E70236B6B2019A80
S1131250D35C1B021943E2E7A37B9B070DD40A4B23
S11312600221A27B0A420AD1012B0AD0013B002BA6
S1131270F7D10020B8E71220B6E70020B4E7002039
S1131280B2E71220B0E7C046FFFF0000AD11000036
S1131290F8B506000C00150007680A4B9847B38B95
S11312A09BB2002B03D0084B98470520F8BDB583AB
S11312B0054B9847746105222223F2541E3B7B732D
S11312C00020F3E75127000091270000931C9B00A6
S11312D019502021012393401A00435C13434354C3
S11312E07047000010B50122014B984710BDC0465D
S11312F091120000F8B58000464BC5582C68238A2B
S11313001BB2002BFBDBA37B667B1E402023EB5C24
S11313102122AF5C1F40F30722D5EB8B9BB2002B3D
S11313201CD0AA691378DBB2511CA961697901291F
S11313300ED09BB2DB05DB0D2383EB8B013B9BB211
S1131340EB83002B0CD1013323730133637307E068
S1131350517809020B430232AA61EBE7012323739C
S1131360B30706D50223237300222133EA54FB0773
S113137016D473074DD5AB8B9BB2002B47D0238A71
S1131380DBB25A0720D09A070ED51A222223EA5438
S1131390203B23827B073CD52B692800984738E003
S11313A02800AB689847E4E75A0705D51E22222394
S11313B0EA541E3B2382EDE7DB07EBD513222223FD
S11313C0EA54213B2382E5E7238BDB05DB0DDAB20C
S11313D069690A706A69511C69616979012910D0C7
S11313E0AB8B013B9BB2AB83002B12D10433237331
S11313F000221E33EA54BB070BD5EB68280098473C
S113140007E01B0A53706B6901336B61E8E704233F
S11314102373F8BDC4000020931C9B001950022ABA
S113142009D0032A0CD0012393401A00037E1343EE
S1131430037600207047037E102213430376F8E7F7
S1131440037E202213430376F3E7000070B5800087
S1131450164BC45823689D7B227E637E13401D4037
S1131460EB0706D4AB070BD4EB0610D4AB0615D4AC
S113147070BD2000A3689847012322689373F1E7A5
S11314802000E3689847022322689373ECE7200066
S113149023699847102322689373E7E72000636960
S11314A09847236820229A73E2E7C046DC000020B4
S11314B010B50020014B984710BDC0464D140000E4
S11314C010B50120014B984710BDC0464D140000D3
S11314D010B50220014B984710BDC0464D140000C2
S11314E010B50320014B984710BDC0464D140000B1
S11314F010B50420014B984710BDC0464D140000A0
S113150010B50520014B984710BDC0464D1400008E
S113151010B50620014B984710BDC0464D1400007D
S113152010B50720014B984710BDC0464D1400006C
S113153030B589B00C4B6A4632CB32C232CB32C2A0
S113154012CB12C2009B98420BD001239A00694629
S11315505258824206D00133082BF7D1002009B03B
S113156030BD0023D8B2FAE7A0370000F0B5C64674
S113157000B588B004000D00160008008B4B984796
S1131580804606AB13221A705A7001329A70DA70D0
S113159001321A715A7101329A71DA7102AA844BBA
S11315A0203383CB83C21B6813600023A360E360F2
S11315B0236163612376637643469A007D4BD4505E
S11315C02560B378082B08D023712B880520DB070E
S11315D008D508B004BC9046F0BD17204246D20797
S11315E0F7D4F1E7EB7B1730DB06F2D42B889B07AB
S11315F0EFD4337C002B00D07CE0337F002B00D071
S113160084E06D49086A43465A0002ABD35A034347
S11316100B62B378082B00D188E033786A461370E4
S113162006AB42469F5C69463800644B98473800D5
S1131630634B98473189B3880B43B178B27911432E
S113164019437378002B02D080231B0119432268AD
S1131650D37B5BB2002BFBDB2980717B4B1E994152
S11316608900B37B002B01D0012319432268D37B6B
S11316705BB2002BFBDBFF232B71002905D0226812
S1131680D37B5BB2002BFBDB6971B17AF37A002B5D
S113169001D010231943337B002B01D0202319439D
S11316A02268D37B5BB2002BFBDBA9712268D37B5E
S11316B05BB2002BFBDB2379042B40D0082B5FD0DB
S11316C01720002B00D084E7D37B5BB2002BFBDB1D
S11316D0338D2B822268D37B5BB2002BFBDB738DB3
S11316E02B832268D37B5BB2002BFBDBB38D6B8334
S11316F000206EE701A901238B700022CA70327E9C
S11317000A704B70307D2F4B984776E701A901236F
S11317108B700022CA702432B21812780A704B708F
S11317201F33F3181878274B98476AE7086A43462B
S11317305A1C520002ABD35A03430B626DE7D37BAE
S11317405BB2002BFBDB2823F35C2B742268D37B76
S11317505BB2002BFBDB2923F35C2B752268D37B64
S11317605BB2002BFBDB2A23F35C2B762268D37B52
S11317705BB2002BFBDB2B23F35C6B76002028E7AA
S1131780D37B5BB2002BFBDBB36A2B612268D37B78
S11317905BB2002BFBDBF36AAB612268D37B5BB2E9
S11317A0002BFBDB336BEB61002012E731150000EB
S11317B0A0370000DC00002000040040352C0000AD
S11317C0A92B00002D2D000010B50468E37B5BB24B
S11317D0002BFBDB0379042B05D0082B14D0172036
S11317E0002B08D010BD17200129FBD8D2B26118F4
S11317F00A760020F6E717200129F3D892B20C31BB
S113180049000A530020EDE717200129EAD80631E0
S113181089000A510020E5E730B583B004000D00CB
S113182002000948094B984701A924012B0A1C43CB
S11318300C704D70064C4025A56102220548064BEC
S11318409847656103B030BD8C390000392200002F
S113185080440041640100205D0D000010B5084B78
S113186099781A781143DA7811431A791143DA888E
S113187011431B8919430020024B984710BDC046F1
S1131880680000201918000010B5044B997A9B8950
S113189019430120024B984710BDC0466800002040
S11318A019180000F8B50C4C20800C4B19802088C6
S11318B00B4D68430B4F0C49B847020000210B48FD
S11318C00B4EB047208868430A49B84702000121FB
S11318D00648B047F8BDC0468E00002094000020A2
S11318E048E80100B932000040420F0048010020DE
S11318F0C917000080841E0010B50448044B9847A3
S11319000122044B1A70044B984710BDD4380000D0
S113191039220000680000205D18000010B50400A2
S1131920174BD870174B9847402C06D8A400164B79
S11319301B599F460122154B1A8010BD0222134BDE
S11319401A80FAE70422114B1A80F6E708220F4B9B
S11319501A80F2E710220D4B1A80EEE720220B4B7F
S11319601A80EAE74022094B1A80E6E78022074BF7
S11319701A80E2E780225200044B1A80DDE7C04659
S1131980680000205D180000D0370000900000209F
S113199070B50500184C262201002000174B98470B
S11319A0174B9847174B9847A17B238A194302206A
S11319B0154EB047A17CA38A19430320B047A17DEB
S11319C0E37D19430420B047217E638B1943A38B25
S11319D019430520B047A17F2023E35C1943212349
S11319E0E35C1943638C1943A38C19430620B04765
S11319F0E878064B984770BD680000204136000027
S1131A005D18000089180000191800001D19000055
S1131A1010B51748174B98471E22174B9A72174B4D
S1131A20984780225203164B5A61164B1A68D37B8F
S1131A305BB2002BFBDB00231371D37B5BB2002B67
S1131A40FBDB402353710E4880210904036A0B42D7
S1131A50FCD1D37B5BB2002BFBDB802353710022D0
S1131A60094B1A800F32044B9A72044B984710BDED
S1131A70EC380000392200006800002089180000BA
S1131A80004400414801002064000020F8B504002F
S1131A9001002E482E4B9847C82C4CD887222D4B3A
S1131AA09A722D4B984725012D1B2C4B1C88631BC8
S1131AB0DA179B1853402A4A128853439BB2294A87
S1131AC01380118889B20022A54252412648204B36
S1131AD09847A54234D380225203244B9A61FA21B9
S1131AE04900FA20C000224B9847224B1A68D37B46
S1131AF05BB2002BFBDB00231371D37B5BB2002BA7
S1131B00FBDB40235371174B1B889BB2002B0AD07D
S1131B10144E194C0E4F318889B22000B8473388CF
S1131B209BB2002BF7D10D4B1D800F22094B9A72EB
S1131B30094B9847F8BD21001048054B9847F9E731
S1131B4080225203094B5A61C9E7C046203900007C
S1131B503922000068000020891800006400002079
S1131B609000002092000020503900000044004101
S1131B70A51800004801002074390000383900001D
S1131B80F8B5040001002F482F4B98471E222F4B15
S1131B909A722F4B9847802252032E4B9A619622B9
S1131BA02D4B1A80FA20C00001002C4B98472C4B77
S1131BB01A68D37B5BB2002BFBDB00231371D37B4E
S1131BC05BB2002BFBDB40235371264D224E264F84
S1131BD001E00120B847A847844203DD33889BB263
S1131BE0002BF6D11E4B1A68D37B5BB2002BFBDBB8
S1131BF08023537118490C88A4B263425C41E4B257
S1131C0080204003134B5861088896231B1A9BB20B
S1131C100B80D37B5BB2002BFBDB00231371D37BE4
S1131C205BB2002BFBDB402353710B4A13889BB23E
S1131C30002BFBD10F22054B9A72054B98472000CD
S1131C40F8BDC046083900003922000068000020B1
S1131C50891800000044004192000020A5180000EB
S1131C6048010020AD1D000071010000F8B504001A
S1131C701A4B984703280BD0194B1B889BB2002B97
S1131C8007D12268D37B5BB2002BFBDB802353712B
S1131C90F8BD134A1388013B9BB21380114B1B8878
S1131CA0114A12889BB29342F2D90E4C2388053B09
S1131CB09BB2238020880D4D68430D4F0D49B847D2
S1131CC0020000210C480D4EB047208868430C499F
S1131CD0B847020001210848B047D9E7892E00001F
S1131CE0920000208E0000209400002048E80100AB
S1131CF0B932000040420F0048010020C91700001B
S1131D0080841E0070B51E4B1868437E5BB2002BA6
S1131D10FBDB037B022213430373437E5BB2002B82
S1131D20FBDB01210425022401E011420AD1037ED8
S1131D30DBB20A001A401D4200D022431C42F4D0F8
S1131D402A43F2E7437E5BB2002BFBDB418B89B273
S1131D500C4B198001230376027ED2B21340540740
S1131D6001D502242343920701D5042213435B07C0
S1131D7001D5022303760448044B984770BDC0463E
S1131D806C01002096000020B039000039220000C8
S1131D9010B5034B9847034B1A88034B1A8010BDA8
S1131DA0051D0000960000209800002010B5064B89
S1131DB09847064B1888064B1B88C31AD80FC018BF
S1131DC0401000B210BDC046051D00009600002062
S1131DD09800002030B583B0652818D001AB532299
S1131DE01A70587005329A70032401AD5823EB70B1
S1131DF029000B480B4B9847FA2080000A4B984760
S1131E00A2B2290009480A4B984703B030BD01AB80
S1131E1053221A7012325A7099700424E5E7C046AE
S1131E20FC3A00003922000071010000200100206A
S1131E30D511000010B500217320044CA0470021E7
S1131E406920A0470120024B984710BDD51D000012
S1131E50292E000010B501006520034B984701208E
S1131E60024B984710BDC046D51D0000292E000026
S1131E7070B582B0002847DB2B236A465370C31722
S1131E80C018584004B2224E22492000B0473030D6
S1131E906B469870204D1F492000A8470CB2FA21C8
S1131EA089002000B04730306B46D870FA21890091
S1131EB02000A8470CB264212000B04730306B46A4
S1131EC0187164212000A8470CB20A212000B047F1
S1131ED030306B4658710A212000A84730316B46D8
S1131EE0997166236A461370153BD37169460B4892
S1131EF00B4B9847082269460A480B4B9847012028
S1131F000A4B984702B070BD2D236A465370B6E75A
S1131F10CD3300001027000099350000E03A00009E
S1131F203922000020010020D5110000292E0000D4
S1131F3010B50448044B984704490548054B984795
S1131F4010BDC046683A0000392200009C00002001
S1131F5020010020E512000010B5794B198879485A
S1131F60794B9847794B1A78002A23D10023784A71
S1131F701370784A1370724B1A88774B19781300D0
S1131F80583B58424341DBB28B4221D100292CD12A
S1131F90492A00D18CE000D881E04D2A00D194E098
S1131FA0542A00D098E05422694B1A70533A6A4B71
S1131FB01A7083E0624B19880B00583B5842434126
S1131FC0DBB265480078834202D1022A00D8A8E037
S1131FD062485D4B984700217520614B9847002269
S1131FE05A4B1A705F4B984710BD5A4B1A78584C8D
S1131FF021785D48544B98472378462B15D04D2BB8
S113200020D0542B1AD00020492B13D000283DD0C7
S1132010012840D03320554B984700234B4A137076
S11320204D4A13704F4B9847DEE7514B9847514B3D
S11320309847F2E70320504B9847E7E706204E4BBA
S11320409847E3E7434B1B78633BDAB2122A1BD869
S113205093004A4AD3589F460420474B9847D5E7F4
S11320600520454B9847D1E70920434B9847CDE7D6
S11320700720414B9847C9E708203F4B9847C5E7DD
S11320800A203D4B9847C1E70020BFE7002161309B
S1132090334B9847C1E73030344B9847BDE7462A65
S11320A01AD146222A4B1A70453A2B4B1A7005E076
S11320B04922274B1A70483A274B1A70234A13783F
S11320C001331370274B98478EE74D22204B1A702B
S11320D00022214B1A70F1E729481B4B9847002135
S11320E075201F4B98470022184B1A701D4B9847B8
S11320F07AE7184B19700222144B1A70013A164BE6
S11321001A70184B98476FE714480F4B98470021F3
S11321107520134B984700220C4B1A70114B9847AB
S113212062E7582900D160E7012A00D05CE70B0080
S1132130633B9AB2122AE7D89300124AD3589F46B7
S11321409C000020743A0000392200009E00002008
S11321509B0000209F0000209A000020983A000075
S1132160D51D0000311F0000AC3A0000551E0000D0
S1132170AD1D0000711E0000292E0000D0390000A2
S1132180CC3A00001C3A000070B584B2034E044DF2
S113219021003000A8470028FAD170BDFC000020BF
S11321A0AD11000070B58CB08023DB0500930023D3
S11321B00193FF2269460A818B72CB7296229201A7
S11321C0049201246A460C754C758B75CB75069385
S11321D00B774B77C4239B03039301235B42089340
S11321E009930E4B0A930E4B0B930E4E0E4930007F
S11321F00E4B9847356828000D4B98471F2318400D
S113220084400C4B1C603268138A1BB2002BFBDB2E
S11322102B68022213432B600CB070BD020018001F
S113222002001900FC00002000140042610F0000AD
S1132230D109000000E100E00FB4F0B5DE465746D6
S11322404E464546E0B58FB00124564B9B460DE003
S11322506A1C18926B78732B14D0642B25D0632BD3
S113226054D0782B5ED0002A00D190E0189D2878B5
S1132270002800D18BE02528EAD04B4B9847013544
S11322801895F3E7671CA40018AB9C4664442468C3
S11322902078002805D0444EB04701342078002827
S11322A0FAD1023518953C00E0E7631C0193A400C1
S11322B018AB9C466444266802AB984600273B4B07
S11322C09A463B4B994600E027007C1C0A213000CB
S11322D0D047434602C398460A213000C847061E29
S11322E0F2D1002C0ED0BF0002AB9C4667442D4BAC
S11322F098462D4E013C43463A68985CB047043FEB
S1132300002CF7D102351895019CAFE7661CA40098
S113231018AB9C4664442078234B984702351895A3
S11323203400A3E7671CA40018AB9C4664442368EC
S113233002AA00210F2600E021004C1C30001840A6
S113234001C21B09F8D1E30704D5A400002302AAA3
S1132350A3508C1C012C14D9002C0ED0154BE6185C
S1132360B60002AB9C466644013C5B463268985C0E
S11323700D4B9847043E002CF6D1023518953C00CD
S113238074E7A300002202A95A500134E4E70FB015
S11323903CBC90469946A246AB46F0BC08BC04B08F
S11323A01847C046143B000089210000C5330000D3
S11323B0B9320000FFFFFF3FF0B5DE4657464E46F8
S11323C04546E0B583B005000C0008202D4B984726
S11323D0002C4DD0AB1C9B46013CA3B202335B00E6
S11323E0EB180193284B9A4609E0FA204000274B4A
S11323F0984702239C46E344019B9B4538D05B46A7
S1132400023B19880029F0D02148224B984783B217
S113241098460004010C2048204B984707043F0CC1
S1132420002FE6DD43465B08009300241C4D802307
S11324305B0399463B004746984609E00120D04794
S113244080239B036B610120D04701344445D0D0E5
S11324504B46EB6180239B03AB61012FEED90098BF
S1132460094EB04780239B036B610098B047ECE7AB
S11324700B200C4B984703B03CBC90469946A246AF
S1132480AB46F0BD1D1900004501000071010000BC
S113249040420F00CD330000400D0300B93200006C
S11324A000440041292E000010B50748074B984707
S11324B0074B9847074B98470022074B1A700B208D
S11324C0064B984710BDC0467C3B000039220000F3
S11324D0111A0000911D0000A0000020292E000008
S11324E010B50E480E4B98470E4B1B78012B10D09D
S11324F03C200D4CA0478022D2030C4B9A61FA2059
S1132500C0000B4B98470520A0470B20094B984768
S113251010BD3220084B9847FAE7C046943B0000B0
S113252039220000A00000208D1A00000044004160
S113253071010000292E0000551E000010B50E4840
S11325400E4B98470E4B1B78012B10D046200D4C98
S1132550A0478022D2030C4B5A61FA20C0000B4BD7
S113256098470520A0470B20094B984710BD3220FF
S1132570084B9847FAE7C046AC3B000039220000FC
S1132580A00000208D1A00000044004171010000E9
S1132590292E0000551E000070B51148114B9847B4
S11325A0114B1B78002B13D05020104CA047FA205D
S11325B040000F4B98470500FA20C0000D4B984788
S11325C00520A047002D07D034200B4B984702E08C
S11325D03220094B984770BD0B20084B9847FAE707
S11325E0C43B000039220000A00000208D1A000026
S11325F0811B000071010000551E0000292E0000FF
S113260070B51148114B9847114B1B78002B13D010
S11326103220104CA047FA2040000F4B9847050089
S1132620FA20C0000D4B98470520A047002D07D085
S113263034200B4B984702E03220094B984770BD79
S11326400B20084B9847FAE7D83B000039220000DA
S1132650A00000208D1A0000811B00007101000001
S1132660551E0000292E000010B50C480C4B98474D
S11326700C4B1B78012B0CD03C200B4CA047FA20B0
S1132680C0000A4B98470520A0470B20084B9847E9
S113269010BD3220074B9847FAE7C046683B00005C
S11326A039220000A00000208D1A000071010000F2
S11326B0292E0000551E000010B51B481B4B9847DF
S11326C01B4B1B78002B18D01A48184B98475020E6
S11326D0194CA0478022D203184B5A61FA20C0003B
S11326E0174B98470520A047164B98470022104BDC
S11326F01A700B20144B984710BD14480B4B984785
S11327008022D2030D4B9A6150200B4CA047FA2033
S1132710C0000B4B98470520A0470A4B984701225D
S1132720034B1A70E5E7C046283B0000392200003D
S1132730A0000020543B00008D1A0000004400411A
S113274071010000911D0000292E0000403B000093
S11327500C4B1B68002B06D1EFF31083002B07D022
S11327600022094B1A70074A13680133136070473B
S113277072B6BFF35F8F0022044B1A700132024B12
S11327801A70F0E7A4000020A80000200800002030
S1132790084B1A68013A1A601B68002B09D1064BD2
S11327A01B78002B05D00122044B1A70BFF35F8FF6
S11327B062B67047A4000020A80000200800002092
S11327C0F0B583B001AC012565700027A7702570B2
S11327D021000E20064EB0478022D201054B9A619B
S11327E02770657021000F20B04703B0F0BDC046CC
S11327F0F92700000044004100B583B001AB8022FA
S11328001A700A785A704A789A708A78DA701900BD
S1132810014B984703B000BD2D2D000010B50728CB
S113282003D88000164B1B589F46002027E0154B09
S1132830D86824E0144B1B6A9B059B0F1348D840AF
S11328401DE0104B18691AE00E4B1B6800209B0713
S113285015D50D491022CB681A42FCD0094B1B68D0
S11328605B0701D40A480AE000200A4B9847054B4D
S11328709B681B041B0C584301E08020000210BD20
S1132880E83B0000AC0000200008004000127A0081
S1132890006CDC02512C000070B50C490B6A047802
S11328A0857840780122104080014026B3430343D9
S11328B02A40D20180208343134303222240120280
S11328C00348034013430B6270BDC0460008004038
S11328D0FFFCFFFF072803D880001E4B1B589F46B0
S11328E0172036E01C4A136A02210B4313620020AE
S11328F02FE0194A936902210B439361002028E0D9
S1132900154A138A02210B431382002021E0124A44
S1132910938A02210B43938200201AE00F4B1A681A
S113292002210A431A601B680D4A13400A4A938421
S113293011001022CB681A42FCD0084A9168064B59
S1132940D96251689962126892B29A84002000E0B8
S113295000207047083C000000080040AC00002044
S11329607FFF000030B585B0C222D2001A4B9A60B6
S11329701A4A53681E218B43536001236A4613701D
S11329800024174DE0B26946A84701341C2CF9D144
S113299003A800244470012585700470114B9847E6
S11329A00620114B9847114B9847114B1C725C72CF
S11329B09C72DC7201956B465C7006236A46137048
S11329C014725472694600200A4B984700200A4B3F
S11329D0984705B030BDC0460008004000400041A3
S11329E0352C000099280000D5280000FD2900009E
S11329F000040040212A0000D92A0000064A9369F5
S1132A0008210B4393610122044B1A7019000B78BF
S1132A101342FCD17047C04600040040000C004043
S1132A2070B5060004000D782D0205434B78002B89
S1132A3002D08023DB021D434B7A002B02D080237B
S1132A401B031D434868012810D9431E184234D182
S1132A50022830D90223002201325B009842FBD8BD
S1132A6012023243140080235B031D430B7A002BB4
S1132A7002D080239B031D43134A53785BB2002B7F
S1132A80FBDB124B9847124B1E700F4A53785BB214
S1132A90002BFBDB0C4B9C601A0053785BB2002BC1
S1132AA0FBDB094A5368802149020B401D435560F2
S1132AB0084B984770BD0022D2E7040234438023B8
S1132AC09B021D43D2E7C046000C00405127000082
S1132AD0080C00409127000010B504000B4A5378FD
S1132AE05BB2002BFBDB0A4B98470A4B1C70074A6E
S1132AF053785BB2002BFBDB044A516880235B02F2
S1132B000B435360044B984710BDC046000C004073
S1132B1051270000040C00409127000070B5040008
S1132B201A4A53785BB2002BFBDB194B9847194BBD
S1132B301C70164A53785BB2002BFBDB134E706893
S1132B40C004C00E144B98470500124B1C707668E5
S1132B50F602F60F114B1C700C4A53785BB2002B33
S1132B60FBDB0A4B9C682402240C0D4B9847002E77
S1132B7007D1012C07D9210028000A4B98470500EA
S1132B8001E00134E540280070BDC046000C00405F
S1132B9051270000040C00401D280000080C0040D0
S1132BA091270000B932000010B50400064B984785
S1132BB0064B1C70064A53888021C9010B4353807D
S1132BC0044B984710BDC04651270000020C00403A
S1132BD0000C00409127000010B504000F4B9847EB
S1132BE00F4B1C700F4A53881B05180F53880E494E
S1132BF00B40538053880D490B40538011008022B1
S1132C00D2014B881342FCD106494A880302064884
S1132C10024013434B80064B984710BD51270000D8
S1132C20020C0040000C0040FFF0FFFFFFBFFFFF5D
S1132C309127000010B50C7824020443024B9847F6
S1132C40A4B2024B5C8010BDD92B0000000C0040E4
S1132C5010B50400064B9847064B1C70064B5C8865
S1132C602405240F054B98472000054B984710BDB9
S1132C7051270000020C0040000C00409127000086
S1132C801D2B000030B5D378002B35D11378802B61
S1132C9029D01B0680246402234354780225AC43C4
S1132CA006D19478002C20D18024A40223434160CF
S1132CB05478013C012C1CD90D042D0CA024E405EE
S1132CC02C431C4384620D0CD02424062C431C4347
S1132CD08462D478002C22D15B031CD59378012B19
S1132CE01ED0416117E00023D7E7C024E402234348
S1132CF0DDE70D4C2340DFE741600C04240CA023E6
S1132D00DB05234383620C0CD0231B06234383621D
S1132D10D378002B03D15378013B012B02D930BD6A
S1132D208161F8E78160FAE7FFFFFBFF10B50A0055
S1132D30C1090023002904D14309DB0105498C465C
S1132D4063441F242040012181401800024B98470E
S1132D5010BDC04600440041852C000070470000AF
S1132D6010B5054B9847054B9847054B9847054BBD
S1132D709847054B984710BD65290000C1270000FE
S1132D805D2D00005D2D00005D2D0000FEE70000BC
S1132D9010B51A4A1A4B9A4211D01A00194B9A428A
S1132DA00DD2194A03339B1A9B0801339B0000225E
S1132DB0134812498C58845004329A42FAD1134A67
S1132DC0134B9A420AD2D34311495B1803218B4314
S1132DD004339B18002102C29342FCD10D4AFF2107
S1132DE00D4B8B4393600D4A53687F390B435360FB
S1132DF00B4B98470B4B9847FEE7C046DC3C000062
S1132E00000000202C000020040000202C000020E2
S1132E107401002000ED00E00000000000400041CB
S1132E20F9350000952E000010B5124B1B78002BCD
S1132E3001D1032810D10F4B1B78012B11D00D4B5E
S1132E401B78002B0DD00B280BD0012809D00A4881
S1132E500A4B984702200CE00948084B9847012088
S1132E6007E0044B18701978C9B20648034B984719
S1132E70002010BDC0000020743C00003922000076
S1132E804C3C00009C3C0000014B1878C0B27047D9
S1132E90C0000020F0B5C64600B58EB0D24B9847AE
S1132EA0D24B9847D24B984701AC0026A670012319
S1132EB0984623700223637021001420CD4DA84747
S1132EC021002620A84721001620A8472670434643
S1132ED0637021001720A847C74F26233B707E70DC
S1132EE0BE7043466370A670237021002620A84755
S1132EF03A785309D0090021002802D1DB01BF49E7
S1132F0059181F231340012210009840886101AC16
S1132F1022700023029323746374A2741F32A35497
S1132F20143A002106A8B64B9847B64B6361C023F8
S1132F309B05A36080235B02E360B34B63620123C0
S1132F405B42A362B14BE362B14B2363B14D2200F8
S1132F50B1492800B14B98472B681A8A12B2002A4B
S1132F60FBDB1A6802210A431A6001AC0023A37038
S1132F701822E2702371C0229200E280C022120162
S1132F8022811422A272EC32A281603AA27300253B
S1132F902382203AA274A3820E31A1750B39E17504
S1132FA0A5770826E6771B316154013162546384A6
S1132FB0A384403A2276C132FF326283A383200085
S1132FC0974B9847974B98472000974B9847C023B7
S1132FD05B01E381267365700A232374934D2200F9
S1132FE093492800934B98472B685A7E52B2002A83
S1132FF0FBDB0F229A751A761A7802210A431A709B
S11330008A4B1A68537E5BB2002BFBDB01AB802238
S1133010D205019200225A60FF2119819A72DA7254
S11330209621890119610121197559759A75DA7505
S11330309A611A775A7780225203DA607E4A1A62BA
S11330407E4A5A62012252429A62DA627C4D7D4C77
S113305003E0FA2080007C4B984701AA7B492800B2
S1133060A0470028F5D1764D2C682000784B98476E
S11330701F2318401E3B8340764A13602A68138A34
S11330801BB2002BFBDB23680222134323606C4B2F
S11330901B681A8A12B2002AFBDB5968802252028A
S11330A00A435A600121664AD1711A8A12B2002A6F
S11330B0FBDB1A8A12B2002AFBDB596880229202D7
S11330C00A435A6001215E4A91711A8A12B2002A97
S11330D0FBDB5B4C012260492000604B98472122B6
S11330E0A35C02210B43A35401AA00230021137003
S11330F093701381002050709172D1721173917387
S113310051731174536193611385A023DB00938081
S1133110602393719A3353857D3B93857C3B13776E
S11331204F4B5362152313624E4C4F4920004F4BB3
S113313098472368DA7B52B2002AFBDB1A88022103
S11331400A431A80474B1A68D37B5BB2002BFBDB24
S113315080235371434C002245492000454B984736
S11331602068454B9847454B1B5C1F221A4001239E
S113317019009140374A1160627E01210A43627648
S1133180226853733E4A1370BFF35F8F62B6002206
S11331903C4B1A703C4B98473A4C3C4D3C4E01E03A
S11331A03C4B98472378033BDAB2082AFAD89300B9
S11331B0EB589F46384B9847F4E7384B9847F1E76C
S11331C0374B9847EEE7374B9847EBE7364B984732
S11331D0E8E7364B9847E5E70F213548354B9847E4
S11331E0E0E7B047DEE7C046612D0000A5210000FE
S11331F005010000F92700004401002000440041BB
S113320053360000A08601000300040003000600FA
S1133210030007006401002000080042610A000066
S113322091190000F91800009D0100006C010020B4
S113323000400042E50100000300280003002900CB
S113324020010020610F00007101000000180042FD
S1133250D109000000E100E0591F0000CD12000078
S11332600400150048010020003C00426D150000D8
S11332706D1C00001914000031150000B43C00005E
S113328008000020C0000020311F0000283C00007E
S1133290351E0000A9240000E12400003D250000A3
S11332A0B9260000012600009925000069260000C7
S11332B00C000020B9230000002243088B4274D381
S11332C003098B425FD3030A8B4244D3030B8B4223
S11332D028D3030C8B420DD3FF22090212BA030C2C
S11332E08B4202D31212090265D0030B8B4219D30D
S11332F000E0090AC30B8B4201D3CB03C01A52412D
S1133300830B8B4201D38B03C01A5241430B8B4274
S113331001D34B03C01A5241030B8B4201D30B035D
S1133320C01A5241C30A8B4201D3CB02C01A524184
S1133330830A8B4201D38B02C01A5241430A8B4247
S113334001D34B02C01A5241030A8B4201D30B0230
S1133350C01A5241CDD2C3098B4201D3CB01C01A4A
S1133360524183098B4201D38B01C01A5241430954
S11333708B4201D34B01C01A524103098B4201D342
S11333800B01C01A5241C3088B4201D3CB00C01AAF
S1133390524183088B4201D38B00C01A5241430827
S11333A08B4201D34B00C01A5241411A00D201464C
S11333B0524110467047FFE701B5002000F0F0F8D5
S11333C002BDC0460029F7D076E7704703460B4399
S11333D07FD4002243088B4274D303098B425FD30A
S11333E0030A8B4244D3030B8B4228D3030C8B4236
S11333F00DD3FF22090212BA030C8B4202D312121C
S1133400090265D0030B8B4219D300E0090AC30BF0
S11334108B4201D3CB03C01A5241830B8B4201D39D
S11334208B03C01A5241430B8B4201D34B03C01A86
S11334305241030B8B4201D30B03C01A5241C30AFE
S11334408B4201D3CB02C01A5241830A8B4201D36F
S11334508B02C01A5241430A8B4201D34B02C01A59
S11334605241030A8B4201D30B02C01A5241CDD2FE
S1133470C3098B4201D3CB01C01A524183098B4249
S113348001D38B01C01A524143098B4201D34B0132
S1133490C01A524103098B4201D30B01C01A524195
S11334A0C3088B4201D3CB00C01A524183088B421C
S11334B001D38B00C01A524143088B4201D34B0005
S11334C0C01A5241411A00D2014652411046704777
S11334D05DE0CA0F00D04942031000D3404253407C
S11334E000229C4603098B422DD3030A8B4212D33C
S11334F0FC22890112BA030A8B420CD3890192116E
S11335008B4208D3890192118B4204D389013AD0AA
S1133510921100E08909C3098B4201D3CB01C01A7F
S1133520524183098B4201D38B01C01A5241430992
S11335308B4201D34B01C01A524103098B4201D380
S11335400B01C01A5241C3088B4201D3CB00C01AED
S1133550524183088B4201D38B00C01A5241D9D205
S113356043088B4201D34B00C01A5241411A00D286
S11335700146634652415B10104601D34042002B82
S113358000D54942704763465B1000D3404201B501
S1133590002000F005F802BD0029F8D016E77047B6
S11335A07047C046F0B5CE46474615042D0C2E0094
S11335B080B50704140C3F0C9946030C7E435D430D
S11335C0674363437F19340CE4199C46A54203D92D
S11335D080235B029846C4444B465143434336041C
S11335E0360C250C24046544A419591849192000E3
S11335F00CBC90469946F0BD70B500260C4D0D4CA0
S1133600641BA410A64209D1002600F057FB0A4D02
S11336100A4C641BA410A64205D170BDB300EB583C
S113362098470136EEE7B300EB5898470136F2E7C6
S1133630C83C0000C83C0000C83C0000CC3C000072
S1133640002310B59A4200D110BDCC5CC4540133A0
S1133650F8E703008218934200D1704719700133D0
S1133660F9E70000AC0300000A0600000A060000A7
S11336700A0600000A0600000A0600000A06000006
S11336800A0600000A0600000A0600000A060000F6
S11336900A0600000A0600000A0600000A060000E6
S11336A00A0600008C0300000A0600000A06000057
S11336B00A0600000A0600000A0600000A060000C6
S11336C00A0600000A0600000A0600000A060000B6
S11336D00A0600000A0600000A0600000A060000A6
S11336E00A060000A40300000A0600000A060000FF
S11336F00A0600000A0600000A0600000A06000086
S11337000A0600000A0600000A0600000A06000075
S11337100A0600000A0600000A0600000A06000065
S11337200A0600009C030000B40300006C030000C0
S11337307C0300007403000002000000030000008A
S1133740280000002900000004000000050000001B
S11337500600000007000000200000002100000017
S113376022000000230000002400000025000000C7
S113377026000000270000000800000009000000E7
S11337800A0000000B00000000080042000C004288
S1133790001000420014004200180042001C0042C5
S11337A0002000420024004200280042002C004275
S11337B0003000420034004200380042003C004225
S11337C000010002000400080010002000400080F6
S11337D0341900003A1900003A1900003A1900009F
S11337E03A1900003A1900003A1900003A19000089
S11337F03C1900003A1900003A1900003A19000077
S11338003A1900003A1900003A1900003A19000068
S1133810441900003A1900003A1900003A1900004E
S11338203A1900003A1900003A1900003A19000048
S11338304C1900003A1900003A1900003A19000026
S11338403A1900003A1900003A1900003A19000028
S1133850541900003A1900003A1900003A190000FE
S11338603A1900003A1900003A1900003A19000008
S11338705C1900003A1900003A1900003A190000D6
S11338803A1900003A1900003A1900003A190000E8
S1133890641900003A1900003A1900003A190000AE
S11338A03A1900003A1900003A1900003A190000C8
S11338B06C1900003A1900003A1900003A19000086
S11338C03A1900003A1900003A1900003A190000A8
S11338D0741900004C4F473A20656E61626C652094
S11338E06472697665720D0A000000004C4F473A15
S11338F020686F6D652073657175656E63652063FF
S1133900616C6C65640D0A004C4F473A206D6F760C
S1133910652074696C6C202564206D4E0D0A0000CE
S11339204C4F473A206D6F766520746F20256420D4
S11339306D6D0D0A00000000457863656564206DB7
S113394061782074726176656C210D0A00000000B4
S11339504C4F473A2074726176656C20256420735D
S11339607465707320696E206469723A2025640D51
S11339700A0000004C4F473A2074726176656C204F
S113398025642073746570732E0D0A004C4F473AFA
S1133990207472616E736D69743A20257820746F97
S11339A0206164726573733A2025780D0A00000063
S11339B04C4F473A206E657720524157204144438B
S11339C02076616C75653A2025640D0A00000000BC
S11339D0682000006020000088200000882000008B
S11339E08820000088200000782000008820000043
S11339F0882000008820000080200000882000002B
S1133A008820000088200000882000008820000012
S1133A10702000008820000058200000F2200000E0
S1133A20F220000008210000082100000821000005
S1133A3008210000F22000000821000008210000F5
S1133A4008210000F22000000821000008210000E5
S1133A50082100000821000008210000F2200000D5
S1133A6008210000F2200000554152542061726D7B
S1133A7065642100554152542043616C6C6261635A
S1133A806B206669726564212053796D626F6C3AAC
S1133A902025630D0A000000496E76616C6964207C
S1133AA0636F6D6D616E64210D0A000056616C696F
S1133AB06420636F6D6D616E642072656365697601
S1133AC065642E2025632C25630D0A00496E7661FA
S1133AD06C696420636F6D6D616E6421200D0A0052
S1133AE04C4F473A20666F7263652073656E64209D
S1133AF0746F20504C433A202573000055415254B2
S1133B002073656E6420746F20504C433A202573F3
S1133B100D0A0000303132333435363738396162BA
S1133B2063646566000000004C4F473A205A5F43C7
S1133B3048414E47455F544F4F4C0D0A000000006A
S1133B404C4F473A205A5F475241425F544F4F4CC3
S1133B500D0A00004C4F473A205A5F44524F505FC1
S1133B60544F4F4C0D0A00004C4F473A205A5F43C4
S1133B704C4F53455F4C49440D0A00004C4F473AA3
S1133B80205A5F415849535F484F4D494E470D0AEB
S1133B90000000004C4F473A205A5F5049434B5FA6
S1133BA053414D504C450D0A000000004C4F473A1C
S1133BB0205A5F504C4143455F53414D504C450D95
S1133BC00A0000004C4F473A205A5F534F414B5F65
S1133BD05354414D500D0A004C4F473A205A5F53FD
S1133BE054414D500D0A00002E2800002A280000E0
S1133BF02A2800007A2800007A28000042280000C1
S1133C00342800004828000000290000E0280000B3
S1133C10E028000050290000F22800000E290000CE
S1133C20E42800001C290000A0310000B431000089
S1133C30BA310000C0310000C6310000CC310000B0
S1133C40D2310000D8310000E23100004C4F473A35
S1133C50206E6577207374617465206661696C6594
S1133C60642C206E6F7420616C6C6F7765642E0D0C
S1133C700A0000004C4F473A206E65772073746148
S1133C807465206661696C65642C206E6F742066AF
S1133C90696E69736865642E0D0A00004C4F473ADB
S1133CA0206E6577207374617465203D2025640D52
S1133CB00A0000000D0E0F1011121314F8B5C046BF
S1133CC0F8BC08BC9E467047CD000000F8B5C0465D
S10F3CD0F8BC08BC9E467047A50000002C
S1133CDC401F00000800000001000000581B701772
S1133CEC581BB80BB80B0000581B7017581B7017D7
S10F3CFC7C157C15581B7017581B000029
S9032D913E
